:1000000000800020B1000000A5040000A50400004D
:10001000A5040000A5040000A504000000000000E5
:10002000000000000000000000000000A504000027
:100030000000000000000000A5040000A50400006E
:10004000AF040000B3040000B7040000BB040000CC
:10005000BF040000C3040000C7040000CB0400007C
:10006000CF040000D3040000D7040000DB0400002C
:10007000DF040000E3040000E7040000EB040000DC
:10008000EF040000F3040000F7040000FB0400008C
:10009000FF04000003050000070500000B05000039
:1000A0000F05000013050000170500001B050000E8
:1000B00080B500AF84B00E480E4901E0002204C1B3
:1000C0008142FBD30C480D49814204D20C4A08CA34
:1000D00008C18142FBD300F0BBF81120029009480F
:1000E00001907D208000039001A800F00DF8FEDE55
:1000F0000800002000000020080000200800002068
:10010000D00B000000440041F0B503AF85B0364984
:100110000E680021721D02920A4652410192354634
:100120000F35049149410091304B03963DE00C6836
:100130004168202944D21F26314001268E402642A4
:1001400006D01446143404994941944206D243E03F
:100150001446183404994941944241D32660816879
:1001600013229952039E3188224A114022220A43C7
:1001700032800099002927D1297849B20029FBDB78
:100180000199002924D14021029A1170102159723D
:100190005A7A0A42FCD0802119703188164A1140DF
:1001A0003180297849B20029FBDB02681146103101
:1001B000049C64419142BAD2144800F0BBFAFEDEBE
:1001C000114800F0B7FAFEDE0D4800F0B3FAFEDE8B
:1001D0000A4800F0AFFAFEDE054800F0ABFAFEDE9A
:1001E000084800F0A7FAFEDE88080000052C00424F
:1001F000280B00009DFF0000FDFF00008C0900009F
:1002000028090000100B0000A4090000F80A0000F3
:1002100080B500AF0A48082100F00CFA049805994F
:1002200000F008FA0748042100F004FA069800F0EC
:1002300023FA0548012100F0FDF9FEDEFEDEC0468E
:1002400060080000800800008C0800007047000073
:10025000F0B503AF83B06A4801681E2291430223C0
:100260001943016067490869082202921043086136
:100270006548664901810189194301810168194274
:10028000FCD001930021C943614D01226A546B5C8B
:10029000134203D02B785BB2002BF8DB072201213D
:1002A000A950297849B20029FBDB0321594B6B5037
:1002B000297849B20029FBDB57490B46EC3301246E
:1002C0002B532B785BB2002BFBDB038B534C1C4076
:1002D0000483046810231C42FBD0514C0462046860
:1002E0001C42FCD0048B4F4E2643068304681C42FC
:1002F000FCD0048B019E344304830468802634427E
:10030000FBD0046840263442F7D004681C42FCD07D
:100310000020A850287840B20028FBDB0323424885
:10032000E850287840B20028FBDB4048A8504048FD
:10033000E85040480093E8500020324A1070507056
:100340009070D07090690426304390615069029B90
:100350001843506150691843506101202952287890
:1003600040B20028FBDB344800F018F9334800F0B5
:1003700015F933480124046001682142FCD1314958
:100380000160009909044160019AC1693142FCD1C0
:100390002D498181016811430160C1691142FCD17D
:1003A0002A482B492B4A0260416016480146486999
:1003B000029A1043486160042749086027480021D9
:1003C00000F0AEF826482853287840B20028FBDB1E
:1003D000E0020C490A4691690143916121480021DC
:1003E0000180048001882142FCD1002101800F217D
:1003F00041560029FBDBFF21817303B0F0BDC046ED
:1004000004400041080400400C0800400C060000B5
:10041000010C004001050100144000007FFF0000B6
:10042000B805FF7D040A0000000703000204000075
:1004300002051100030601006808000070080000B2
:1004400000080042040031402AF6000000000020AD
:10045000900800008408000008440041780800006B
:100460001B420000002C0042F0B503AF81B00B48E6
:100470000168009100290FD04068C6680024084830
:10048000055D0A2D02D10D210098B047009829463C
:10049000B047641C0A2CF2D100BEFEE70000002029
:1004A000A008000080B500AFFFF7DEFFFEDEF9E731
:1004B000FEDEF7E7FEDEF5E7FEDEF3E7FEDEF1E760
:1004C000FEDEEFE7FEDEEDE7FEDEEBE7FEDEE9E770
:1004D000FEDEE7E7FEDEE5E7FEDEE3E7FEDEE1E780
:1004E000FEDEDFE7FEDEDDE7FEDEDBE7FEDED9E790
:1004F000FEDED7E7FEDED5E7FEDED3E7FEDED1E7A0
:10050000FEDECFE7FEDECDE7FEDECBE7FEDEC9E7AF
:10051000FEDEC7E7FEDEC5E7FEDEC3E7FEDE000067
:10052000F0B503AF83B0426853080192202A1DD270
:100530000290066800223546303514466441B542C3
:1005400018D3EB185241AB4218D31C78CAB2102A08
:1005500018D2019880000422024091400F20904060
:1005600084430C431C70029803B0F0BD0A4800F0AD
:10057000E1F8FEDE074800F0DDF8FEDE044800F09A
:10058000D9F8FEDE014800F0D5F8FEDEA00A000032
:10059000880A0000700A0000580A0000B0B502AFD7
:1005A0004168202913D204680022234640331546AF
:1005B0006D41A3420FD35918524199420FD30A7883
:1005C000012313430B700221FFF7AAFFB0BD0848B7
:1005D00000F0B0F8FEDE054800F0ACF8FEDE0248A0
:1005E00000F0A8F8FEDEC046D4090000BC090000F7
:1005F000A4090000D0B502AF00680246183282425A
:100600000CD3137801242342FBD000230246283266
:100610005B41824206D3C8B21080D0BD044800F0CE
:1006200089F8FEDE014800F085F8FEDEA80B000028
:10063000900B0000F0B503AF83B00C4605460D48A3
:1006400001680291002912D0002C10D04068C068C7
:1006500001902E786D1C0A2E03D10D210298019A6B
:10066000904702983146019A9047641EF1D103B039
:10067000F0BDC04600000020F0B503AF85B00546D0
:100680001E4800680190002835D003A80021818011
:100690000391002D2FD003A8401D029000260A21AF
:1006A000284600F061F80921C94341436918144AFA
:1006B000515C029A9155741E721D03D0092D264675
:1006C0000546ECD8002C0D4815D04068C068029053
:1006D00001E0641CF17903A80619651CC8B20A2858
:1006E00004D10D210198029A9047B1790198029A9C
:1006F0009047002DEDD105B0F0BDC04600000020B0
:10070000C00B0000F0B503AF89B0089307920B4609
:1007100070C8016806914168826868460EC00799F2
:10072000016008994160204629463246069BFFF742
:100730006FFDFEDEB0B502AF88B030C808380346A2
:1007400008330ECB0795069406A80090012001906F
:10075000002002900390034C049405906846FFF734
:10076000D1FFFEDED00B0000F0B503AF81B0002951
:1007700066D00022002840D0202300291C461AD031
:100780004C080C43A50825432C092C43250A254376
:100790002C0C2C43E44365082A4E2E40A41B2A4D02
:1007A000A6082C402E40A41925096419274D254080
:1007B000274C6C43240E00281AD0430803439D089D
:1007C0001D432B092B431D0A1D432B0C2B43DB43DD
:1007D0005D081C4E2E409B1B1B4D9E082B402E403F
:1007E0009B191D095B19194D1D40194B6B431B0EBD
:1007F000E41A1F2C01D803D10246104601B0F0BD07
:10080000631C1F221E4616400546F540141B14406B
:10081000A0404A1E00920022C60F6D003543009C86
:10082000661BF41726460E40AD1B40001043012204
:1008300022405B1EF0D140000243104601B0F0BDE3
:10084000FEDEFEDE55555555333333330F0F0F0F94
:0408500001010101A0
:100860005B70616E69635D20004400410A00000016
:10087000004400410B000000004400411100000052
:100880002061742000080042002C00420A00000091
:100890004D0200000400000004000000F505000007
:1008A000455843455054494F4E0A0000000000008F
:1008B000617474656D707420746F20616464207756
:1008C000697468206F766572666C6F772F557365F3
:1008D00072732F6A63736F6F2F2E636172676F2F4E
:1008E00072656769737472792F7372632F676974A5
:1008F0006875622E636F6D2D3165636336323939E9
:1009000064623965633832332F626F6262696E2DBB
:10091000626974732D302E312E312F7372632F6CF8
:1009200069622E7273000000B00800001C00000015
:100930004009000049000000B30800000900000061
:100940002F55736572732F6A63736F6F2F626F62B7
:1009500062696E2D6465762F626F6262696E2D64C6
:1009600065762F6D63752F626F6262696E2D73619C
:100970006D2F73616D6432312F7372632F706572E6
:100980006970682F74632E7273000000B008000055
:100990001C0000004009000049000000AB070000F7
:1009A000090000003B0A00001C000000CC08000009
:1009B000590000002904000001000000B0080000F8
:1009C0001C000000F00900004B000000470100007F
:1009D0000A000000B00800001C000000F009000040
:1009E0004B0000004701000009000000000000006B
:1009F0002F55736572732F6A63736F6F2F626F6207
:100A000062696E2D6465762F626F6262696E2D6415
:100A100065762F6D63752F626F6262696E2D7361EB
:100A20006D2F73616D6432312F7372632F70657235
:100A30006970682F706F72742E7273617373657250
:100A400074696F6E206661696C65643A206F7468C2
:100A50006572203C20333200DA0A00001C000000DE
:100A6000CC080000590000006102000001000000F5
:100A7000B00800001C000000F00900004B0000005E
:100A8000690100000A000000B00800001C0000001E
:100A9000F00900004B00000069010000090000009F
:100AA000B80A000022000000CC0800005900000035
:100AB0000701000001000000617373657274696FC3
:100AC0006E206661696C65643A206F746865722097
:100AD0002620213135203D3D2030617373657274CD
:100AE000696F6E206661696C65643A206F74686531
:100AF00072203C2031360000B00800001C000000CD
:100B0000F00900004B000000C200000009000000D6
:100B1000B00800001C000000F00900004B000000BD
:100B20000401000009000000B00800001C000000E3
:100B3000F00900004B000000E30000000900000085
:100B40002F55736572732F6A63736F6F2F626F62B5
:100B500062696E2D6465762F626F6262696E2D64C4
:100B600065762F6D63752F626F6262696E2D73619A
:100B70006D2F73616D6432312F7372632F706572E4
:100B80006970682F736572636F6D2E727300000059
:100B9000B00800001C000000400B00004D000000E9
:100BA000F612000009000000B00800001C00000060
:100BB000400B00004D000000721200000900000010
:100BC00030313233343536373839616263646566C3
:04000003000000B049
:00000001FF
