:100000000030002001100000A5100000A510000025
:10001000A5100000A5100000A510000000000000C1
:10002000000000000000000000000000A51000001B
:10003000A510000000000000A5100000A5100000A1
:1000400000000000000000000000000000000000B0
:1000500000000000000000000000000000000000A0
:100060000000000000000000000000000000000090
:100070000000000000000000000000000000000080
:100080000000000000000000000000000000000070
:100090000000000000000000000000000000000060
:1000A0000000000000000000000000000000000050
:1000B0000000000000000000000000000000000040
:1000C0000000000000000000000000000000000030
:1000D0000000000000000000000000000000000020
:1000E0000000000000000000000000000000000010
:1000F0000000000000000000000000000000000000
:10040000FFFFFFFFFFFFFFFFFFFFFFFFFEFFFFFFFD
:1010000080B500AF1B49002008601B491B4A012323
:101010008A4200D21846511A002827D1164801F0FA
:10102000D6F81748174900230122814200D21346FF
:101030000A1A002B17D11248134901F0BFF81348C0
:10104000134900230122814200D213460A1A002BC1
:1010500009D10E480F4901F0B1F80F4800F02CFFFC
:1010600000F021F8FEE70D4801F004F80C4801F00B
:1010700001F8C0460081044000F1FF1F04F1FF1F8A
:1010800004F1FF1F04F1FF1F482E000000F0FF1FB6
:1010900000F1FF1F00000000E0FF3F006822000099
:1010A00054220000FEE780B500AF84B000F03EF9A6
:1010B000684600F08DF802A800F0E2F8684600F0FB
:1010C000F5FA642000F0F8F8F8E70000F0B503AF97
:1010D00085B0064630C90395029402A8012100F0AC
:1010E00041F8174817498C4201960ADD16498C428F
:1010F0000FD016498C420ED0154884421DD1174896
:101100000AE014498C4207D013498C4215D1403073
:1011100002E0803000E0C030049004AE304600F0C1
:10112000EFFE0022294600F02BFF0146304600F07A
:10113000FBFE019830C005B0F0BD094800F09AFFF1
:1011400000F00F40FFAF044000B0044000C0044076
:1011500000D004400090044000A0044000F10F4083
:10116000DC220000F0B503AF81B00D4601680091AC
:1011700044686E463046214600F01AFFE9B200F09E
:1011800069FF02463046214600F02CFF01B0F0BD59
:10119000F0B503AF83B00190086800904D680290ED
:1011A00002AE3046294600F003FF0124214600F03C
:1011B00041FF214600F030FF02463046294600F04C
:1011C00011FF0198009922C003B0F0BDFEE70000B6
:1011D000F0B503AF87B00190204D01262846314677
:1011E00000F0AAF802A81D22294600F05DFA029C30
:1011F000039D0595049404A83146FFF7B3FF1848F2
:1012000018498C420ADD18498C420FD017498C428C
:101210000ED0124884421DD117480AE014498C426E
:1012200007D014498C4215D1403002E0803000E0F4
:10123000C030069006AE304600F062FE012229461C
:1012400000F09EFE0146304600F06EFE019830C070
:1012500007B0F0BD094800F00DFFC04600D00440C3
:1012600000F00F40FFAF044000B0044000C0044055
:101270000090044000A0044000F10F40DC22000078
:10128000F0B503AF85B004460A4D0121284600F0B1
:1012900053F803AE06223046294600F005FA01ADA8
:1012A00028463146FFF712FF20462946FFF770FF18
:1012B00005B0F0BD00B00440F0B503AF81B0054605
:1012C0000124204600F094F8204600F031FA002670
:1012D000304600F02BFA0090EB17124A28463146B0
:1012E00000F0FCFE02460029204600D108460028F6
:1012F00015D16D462846114600F030FA284600F018
:101300006BFA2846214600F03BFA684600F050FA96
:101310000128FAD1684600F05FFA01B0F0BD02483A
:1013200000F0A8FEC05D0000B422000080B500AF50
:1013300000F074F880BD0000B0B502AF82B00C467A
:101340002349244A904211DD234A90421DD0234A6A
:10135000904223D0224A904237D1019101AD2846D4
:1013600000F090FA214600F061FB28E01D4A90420F
:101370001DD01D4A904228D1019101AD284600F0B0
:1013800081FA214600F022FB19E0019101AD2846C7
:1013900000F078FA214600F029FB10E0019101AD40
:1013A000284600F06FFA214600F030FB07E001917B
:1013B00001AD284600F066FA214600F0F7FA014632
:1013C000284600F075FA02B0B0BD084800F052FEA1
:1013D00000700440FFAF044000B0044000C004406F
:1013E00000D004400090044000A00440C822000047
:1013F000B0B502AF82B004460748019001AD28465F
:1014000000F06CFA214600F021FB0146284600F06E
:101410007BFA02B0B0BDC0460070044080B500AF9A
:1014200000F002F880BD0000F0B503AF83B01A48A9
:1014300000906D46284600F0E3F90124214600F0B3
:10144000E5F90146284600F0DEF9144E019601AD9B
:10145000284600F06FFA214600F018FB214600F004
:1014600005FB0146284600F07BFA029602AD2846AD
:1014700000F0DCF9214600F089FA0146284600F028
:10148000EBF900F011F800F063F800F0C3F804483D
:101490000449016003B0F0BD0050064000700440F4
:1014A00000F1FF1F006CDC02F0B503AF85B02748E8
:1014B0000290002402210091204600F093FB0321BA
:1014C000019100F07FFB0126314600F05BFB0146F5
:1014D00002AD284600F0EAFA2046009900F0A2FB8F
:1014E000314600F08FFB0146284600F0E3FA204623
:1014F000214600F0B7FB019900F0A4FB0146284605
:1015000000F0EAFA2046314600F0BCFB01462846CE
:1015100000F0F4FA2846214600F002FB02A800F091
:1015200011FB03A90870084600F0CFFBFF21084219
:10153000F4D102A800F006FB04A90870084600F0E8
:10154000BFFBC0B20228F4D105B0F0BD0040064098
:10155000F0B503AF85B02D4801902D48029001AD44
:10156000284600F04DF90124214600F04FF90146CC
:10157000284600F048F9002502210091284600F095
:1015800031FB032100F01EFB294600F00BFB214636
:1015900000F0F8FA294600F0E7FA014602AE3046BC
:1015A00000F084FA2846009900F03CFB214600F048
:1015B00029FB0146304600F07DFA2846214600F01E
:1015C00061FB0146304600F099FA2846214600F0BA
:1015D00067FB0146304600F0A3FA02A800F0B2FA19
:1015E00003A90870084600F06BFBC0B20228F4D1D2
:1015F00002A800F0A7FA04A90870084600F06AFBE8
:10160000FF210842F4D005B0F0BDC04600500640AE
:1016100000400640F0B503AF83B021480090214858
:101620000190002401252046294600F0EFF80146EC
:10163000684600F0E8F80321204600F0C3FA294686
:1016400000F0A0FA014601AE304600F02FFA022168
:10165000204600F0E7FA294600F0D4FA0146304669
:1016600000F028FA2046294600F00CFB01463046DF
:1016700000F044FA2046294600F012FB01463046AD
:1016800000F04EFA01A800F05DFA02A908700846C1
:1016900000F016FBC0B20328F4D103B0F0BDC04681
:1016A000005006400040064006C0704780B500AFBD
:1016B00082B002681449154B9A420ADD144B9A42D3
:1016C0000FD0144B9A420ED013498A4218D11549B3
:1016D0000AE0124B9A4207D0114B9A4210D1403186
:1016E00002E0803100E0C031019141680020012218
:1016F00000F02EFC014601A800F0EEFB02B080BD18
:10170000094800F0B7FCC04600F00F40FFAF0440AE
:1017100000B0044000C0044000D0044000900440E9
:1017200000A0044000F10F40DC22000070470000E0
:10173000B0B502AF82B0084901910124444001AD27
:10174000284600F0CCFA214600F084FB01462846EA
:1017500000F0C8FA02B0B0BD00700340D0B502AFCF
:1017600082B0064A01920468002000F083FB024622
:1017700001A8214600F0BAFA02B0D0BD00700340C3
:10178000F0B503AF81B00C460849009105686E467C
:101790003046294600F0CEFA214600F06DFB0246A5
:1017A0003046294600F0EAFA01B0F0BD007003406F
:1017B00080B500AF82B00168064800F003FB0190DD
:1017C00001A800F067FB01460120002900D108466E
:1017D00002B080BDF0220000D0B502AF82B0074950
:1017E000019104680020012100F058FB024601A885
:1017F000214600F00BFB02B0D0BDC0460070034094
:1018000000680078704700680170704780B500AFCD
:10181000CAB2022A05D27F221040C90101430846FC
:1018200080BD014800F026FC9823000080B500AF81
:1018300003680748181800210122984200D2114677
:10184000002901D1006880BD024800F013FCC046A9
:101850000410000078260000D0B502AF04680748E5
:10186000201800220123A04200D21A46002A01D1EA
:101870000160D0BD024800F0FDFBC046041000002E
:101880008C26000080B500AF0368074818180021B7
:101890000122984200D21146002901D1006880BD82
:1018A000024800F0E7FBC04638100000A026000008
:1018B000D0B502AF04680748201800220123A042D7
:1018C00000D21A46002A01D10160D0BD024800F0C2
:1018D000D1FBC04638100000B426000080B500AF30
:1018E00003680748181800210122984200D21146C7
:1018F000002901D1006880BD024800F0BBFBC04652
:101900003C100000C8260000D0B502AF04680748AC
:10191000201800220123A04200D21A46002A01D139
:101920000160D0BD024800F0A5FBC0463C1000009D
:10193000DC26000080B500AF0368074818180021B6
:101940000122984200D21146002901D1006880BDD1
:10195000024800F08FFBC04644100000F026000053
:10196000D0B502AF04680748201800220123A04226
:1019700000D21A46002A01D10160D0BD024800F011
:1019800079FBC046441000000427000080B500AF7A
:10199000022906D201221204904309040143084699
:1019A00080BD014800F066FBAC23000080B500AFAD
:1019B000022906D2012252029043490201430846FD
:1019C00080BD014800F056FBC023000080B500AF89
:1019D000022906D20122920290438902014308465D
:1019E00080BD014800F046FBD423000080B500AF65
:1019F000022906D20122D2029043C90201430846BD
:101A000080BD014800F036FBE823000080B500AF40
:101A1000022906D20122120390430903014308461A
:101A200080BD014800F026FBFC23000080B500AF1C
:101A3000022906D20122520390434903014308467A
:101A400080BD014800F016FB1024000080B500AFF7
:101A5000022906D20122D2059043C9050143084656
:101A600080BD014800F006FB2424000080B500AFD3
:101A7000082906D2072212049043090401430846AC
:101A800080BD014800F0F6FA3824000080B500AFB0
:101A9000102906D20F221207904309070143084676
:101AA00080BD014800F0E6FA4C2400000068017097
:101AB00070470000D0B502AF0468601C002201230B
:101AC000A04200D21A46002A01D10170D0BD0148BF
:101AD00000F0D0FA58270000D0B502AF0468E01C2F
:101AE00000220123A04200D21A46002A01D101702F
:101AF000D0BD014800F0BEFA6C270000D0B502AF9F
:101B00000468201D00220123A04200D21A46002AA8
:101B100001D10170D0BD014800F0ACFA802700006F
:101B2000D0B502AF0468601D00220123A04200D29C
:101B30001A46002A01D10170D0BD014800F09AFA7E
:101B40009427000080B500AF0368981D0021012292
:101B5000984200D21146002901D1007880BD014889
:101B600000F088FAA827000080B500AFCAB2022AA8
:101B700003D201229043084380BD014800F07AFA65
:101B80006024000080B500AFCAB2022A05D202224A
:101B9000904349000143084680BD014800F06AFABD
:101BA0007424000080B500AFCAB2022A05D2042214
:101BB000904389000143084680BD014800F05AFA6D
:101BC0008824000080B500AFCAB2082A05D23822A6
:101BD0009043C9000143084680BD014800F04AFA1D
:101BE0009C24000080B500AFCAB2042A05D23F226F
:101BF000104089010143084680BD014800F03AFACF
:101C0000B024000080B500AFCAB2022A05D2042277
:101C1000904389000143084680BD014800F02AFA3C
:101C2000C424000080B500AFCAB2042A05D2302215
:101C3000904309010143084680BD014800F01AFAAB
:101C4000D824000080B500AFCAB2042A05D26022B1
:101C5000904349010143084680BD014800F00AFA5B
:101C6000EC24000080B500AFCAB2022A05D27F2260
:101C70001040C9010143084680BD014800F0FAF94F
:101C80000025000080B500AFCAB2202A03D21F226F
:101C90009043084380BD014800F0ECF91425000092
:101CA00080B500AFCAB2022A05D240229043890112
:101CB0000143084680BD014800F0DCF928250000FA
:101CC000007881080320084070470078010901204E
:101CD000084070470078810901200840704700687B
:101CE000006870470068016070470000B0B502AF3F
:101CF000042917D201231C02056828190024A842D0
:101D000000D21C46002C0AD10901411800230124ED
:101D1000814200D22346002B01D10A60B0BD0348A6
:101D200000F0A8F9024800F0A5F9C046F827000025
:101D30003C250000D0B502AF042918D22122D200E0
:101D40000468A01800220123A04200D21A46002AEB
:101D50000AD10901411800220123814200D21A460A
:101D6000002A01D10868D0BD024800F083F902487A
:101D700000F080F90C28000050250000B0B502AF3B
:101D8000042918D22123DB000568E8180023012468
:101D9000A84200D22346002B0AD109014118002392
:101DA0000124814200D22346002B01D10A60B0BD3C
:101DB000024800F05FF9024800F05CF920280000BA
:101DC00064250000D0B502AF042918D24322920046
:101DD0000468A01800220123A04200D21A46002A5B
:101DE0000AD10901411800220123814200D21A467A
:101DF000002A01D10868D0BD024800F03BF9024832
:101E000000F038F93428000078250000B0B502AFA2
:101E1000042918D243239B000568E81800230124F5
:101E2000A84200D22346002B0AD109014118002301
:101E30000124814200D22346002B01D10A60B0BDAB
:101E4000024800F017F9024800F014F94828000091
:101E50008C25000080B500AF022905D202229043F4
:101E600049000143084680BD014800F003F9C0461F
:101E7000A02500000846704780B500AF022903D2B4
:101E800001229043084380BD014800F0F3F8C046AA
:101E9000B4250000016801200840704780B500AFFC
:101EA000022903D201229043084380BD014800F07B
:101EB000E1F8C046C825000080B500AF410E0029FA
:101EC00003D1C0010249086080BD024800F0D2F889
:101ED00008ED00E06C290000D0B502AF0468204690
:101EE0000C3000220123A04200D21A46002A01D160
:101EF0000160D0BD014800F0BDF8C0462C2B0000A9
:101F000080B500AF036818461430002101229842C2
:101F100000D21146002901D1006880BD014800F0BF
:101F2000A9F8C046402B0000D0B502AF0468204697
:101F3000143000220123A04200D21A46002A01D107
:101F40000160D0BD014800F095F8C046542B000058
:101F500080B500AF202909D2022A0AD21F231940D6
:101F60008A4001238B409843104380BD034800F012
:101F700081F8014800F07EF8202A00000C2A0000B9
:101F800080B500AF202909D2022A0AD21F231940A6
:101F90008A4001238B409843104380BD034800F0E2
:101FA00069F8014800F066F8482A0000342A000069
:101FB00080B500AF20290BD2890003685818002192
:101FC0000122984200D21146002904D1006880BD48
:101FD000034800F04FF8014800F04CF8B42B000023
:101FE0005C2A0000D0B502AF20290BD2890004681A
:101FF000601800210123A04200D21946002904D113
:102000000260D0BD034800F035F8014800F032F816
:10201000C82B0000702A000080B500AF022903D24F
:1020200001229043084380BD014800F023F8C046D8
:10203000842A000080B500AF022905D20222904315
:1020400049000143084680BD014800F013F8C0462E
:10205000982A000080B500AF082906D20722120294
:10206000904309020143084680BD014800F002F890
:10207000AC2A0000D0B502AF8CB01EC80068079132
:10208000089207A901910121029100210491039175
:10209000044A0592069109930A940B9001A809A994
:1020A00000F002F8542C0000F0B503AF89B00268CC
:1020B0000692456882680792C26808920669446978
:1020C0000CC909686846066044608260C3600161AB
:1020D00006982946079A089BFFF778F8F0B503AFF2
:1020E00087B003930291030C069291B204931A46AF
:1020F0004A4383B259430D0CAC1800260122AC426E
:1021000000D21646274A002E3CD1059211402604E3
:102110000E43002201258E4200D22A46002A34D1E5
:102120000699090C01914B43310CCB180022012573
:102130008B4200D22A46210C0091002A28D1059911
:102140000E401C04344300220125B44200D22A462A
:10215000002A20D1049A01994A43190C009BCD18FA
:10216000A91800220123A94200D21A46002A15D13B
:10217000029B069A5343039A5043C01841182046C5
:1021800007B0F0BD0C48FFF775FF0A48FFF772FF74
:102190000748FFF76FFF0548FFF76CFF0248FFF79E
:1021A00069FFC046FFFF00002C2D0000182D000025
:1021B000042D0000F02C0000DC2C000004E00B7863
:1021C0000370491C401C521E002AF8D1704703E0DE
:1021D00000220270401C491E0029F9D170470000FE
:1021E0002F55736572732F6A63736F6F2F2E636140
:1021F00072676F2F72656769737472792F73726378
:102200002F6769746875622E636F6D2D3165636326
:102210003632393964623965633832332F72302D82
:10222000302E312E302F7372632F6C69622E7273D1
:10223000617474656D707420746F2073756274724C
:102240006163742077697468206F766572666C6F5D
:10225000770000003022000021000000E021000093
:10226000500000003100000030220000210000007A
:10227000E0210000500000001B0000007372632F7B
:1022800074696D2E727300000000000000000000F1
:10229000617474656D707420746F206D756C7469F1
:1022A000706C792077697468206F766572666C6FE0
:1022B0007700000090220000210000007C22000036
:1022C0000A000000100000000023000013000000BE
:1022D0002023000036000000110000000023000051
:1022E0001300000060230000370000002B000000F6
:1022F000007003400000000000000000000000002B
:102300006E6F742079657420696D706C656D656E93
:102310007465640000000000000000000000000080
:102320002F55736572732F6A63736F6F2F626F62BD
:1023300062696E2F626F6262696E2D6B696E657481
:1023400069732F6B6C32362D68616C2F7372632F3B
:1023500073696D2E72730000000000000000000021
:102360002F55736572732F6A63736F6F2F626F627D
:1023700062696E2F626F6262696E2D6B696E657441
:1023800069732F6B6C32362D68616C2F7372632FFB
:10239000706F72742E72730090280000230000008A
:1023A00000260000370000004E00000090280000CA
:1023B000230000004026000037000000410100001B
:1023C0009028000023000000402600003700000095
:1023D0005003000090280000230000004026000069
:1023E000370000005A03000090280000230000007E
:1023F0004026000037000000640300009028000021
:102400002300000040260000370000006E0300009B
:102410009028000023000000402600003700000044
:1024200078030000902800002300000040260000F0
:1024300037000000BB030000C0280000230000009C
:1024400040260000370000003E040000F028000095
:10245000240000004026000037000000480400006F
:102460009028000023000000202700003700000013
:102470009D0000009028000023000000202700009D
:1024800037000000A7000000902800002300000093
:102490002027000037000000B1000000C028000025
:1024A000230000002027000037000000BB000000D0
:1024B00060280000230000002027000037000000F3
:1024C000C500000090280000230000002027000025
:1024D00037000000FC00000060280000230000001E
:1024E00020270000370000001001000060280000D5
:1024F0002300000020270000370000007C010000BE
:102500009028000023000000202700003700000072
:102510008601000020290000240000002027000080
:1025200037000000A80100009028000023000000F0
:102530002027000037000000F101000050290000B2
:102540001B000000C027000037000000170000003B
:10255000502900001B000000C027000037000000C9
:1025600025000000502900001B000000C0270000CB
:102570003700000029000000502900001B00000067
:10258000C027000037000000320000005029000082
:102590001B000000C02700003700000036000000CC
:1025A0009028000023000000C02700003700000032
:1025B000520000009028000023000000C027000007
:1025C00037000000AE00000090280000230000004B
:1025D000C027000037000000E300000000000000FA
:1025E000617474656D707420746F20616464207709
:1025F000697468206F766572666C6F770000000002
:102600002F55736572732F6A63736F6F2F626F62DA
:1026100062696E2F626F6262696E2D6B696E65749E
:1026200069732F6B6C32362D636869702F73726318
:102630002F6F73632E727300000000000000000013
:102640002F55736572732F6A63736F6F2F626F629A
:1026500062696E2F626F6262696E2D6B696E65745E
:1026600069732F6B6C32362D636869702F737263D8
:102670002F73696D2E727300E02500001C000000AE
:1026800040260000370000001E000000E02500008A
:102690001C00000040260000370000002100000060
:1026A000E02500001C00000040260000370000006C
:1026B00059000000E02500001C000000402600003A
:1026C000370000005C000000E02500001C00000056
:1026D000402600003700000064000000E0250000F4
:1026E0001C000000402600003700000067000000CA
:1026F000E02500001C00000040260000370000001C
:102700007A000000E02500001C00000040260000C8
:10271000370000007D000000000000000000000005
:102720002F55736572732F6A63736F6F2F626F62B9
:1027300062696E2F626F6262696E2D6B696E65747D
:1027400069732F6B6C32362D636869702F737263F7
:102750002F6D63672E727300E02500001C000000DF
:10276000202700003700000016000000E0250000D0
:102770001C00000020270000370000002C00000093
:10278000E02500001C0000002027000037000000AA
:1027900037000000E02500001C000000202700009A
:1027A0003700000042000000E02500001C0000008F
:1027B00020270000370000004A0000000000000051
:1027C0002F55736572732F6A63736F6F2F626F6219
:1027D00062696E2F626F6262696E2D6B696E6574DD
:1027E00069732F6B6C32362D636869702F73726357
:1027F0002F7069742E727300E02500001C00000029
:10280000C02700003700000018000000E02500008D
:102810001C000000C0270000370000002600000058
:10282000E02500001C000000C02700003700000069
:102830002A000000E02500001C000000C027000066
:102840003700000033000000E02500001C000000FD
:10285000C027000037000000370000000000000023
:10286000617373657274696F6E206661696C65640B
:102870003A202876616C7565202620213329203D79
:102880003D203000000000000000000000000000BB
:10289000617373657274696F6E206661696C6564DB
:1028A0003A202876616C7565202620213129203D4B
:1028B0003D2030000000000000000000000000008B
:1028C000617373657274696F6E206661696C6564AB
:1028D0003A202876616C7565202620213729203D15
:1028E0003D2030000000000000000000000000005B
:1028F000617373657274696F6E206661696C65647B
:102900003A202876616C75652026202131352920F2
:102910003D3D2030000000000000000000000000ED
:10292000617373657274696F6E206661696C65644A
:102930003A202876616C75652026202133312920C4
:102940003D3D2030000000000000000000000000BD
:10295000617373657274696F6E206661696C65641A
:102960003A20696E646578203C203400E02900003C
:102970002A0000008029000059000000D901000051
:102980002F55736572732F6A63736F6F2F2E636198
:1029900072676F2F6769742F636865636B6F7574F7
:1029A000732F626F6262696E2D636F727465786DEA
:1029B0002D39646663616361316239623030386534
:1029C000662F356531386331362F7372632F636834
:1029D00069702F7363622E727300000000000000A4
:1029E000617373657274696F6E206661696C65648A
:1029F0003A202876616C75652026202133333535E1
:102A00003434333129203D3D20300000E02B0000DC
:102A10001C000000C02A000042000000FE00000070
:102A2000002C000023000000C02A0000420000002B
:102A3000FF000000E02B00001C000000C02A000086
:102A40004200000082010000002C00002300000072
:102A5000C02A00004200000083010000E02B0000BB
:102A60001C000000702B0000420000000700000066
:102A7000E02B00001C000000702B00004200000052
:102A80000B000000002C000023000000702B000051
:102A90004200000030000000002C00002300000075
:102AA000702B0000420000003A000000302C0000B3
:102AB00023000000702B0000420000006C000000AA
:102AC0002F55736572732F6A63736F6F2F626F6216
:102AD00062696E2F626F6262696E2D6B696E6574DA
:102AE00069732F6B696E657469732D636F6D6D6F9C
:102AF0006E2F7372632F636869702F6770696F2E12
:102B000072730000000000000000000000000000E0
:102B1000617474656D707420746F206164642077D3
:102B2000697468206F766572666C6F77102B000091
:102B30001C000000C02A0000420000001A00000033
:102B4000102B00001C000000C02A00004200000002
:102B500022000000102B00001C000000C02A000012
:102B600042000000250000000000000000000000FE
:102B70002F55736572732F6A63736F6F2F626F6265
:102B800062696E2F626F6262696E2D6B696E657429
:102B900069732F6B696E657469732D636F6D6D6FEB
:102BA0006E2F7372632F636869702F706F72742E4B
:102BB00072730000102B00001C000000702B00003E
:102BC0004200000008000000102B00001C00000064
:102BD000702B0000420000000C000000000000000C
:102BE000617373657274696F6E206661696C656488
:102BF0003A20696E646578203C2033320000000082
:102C0000617373657274696F6E206661696C656467
:102C10003A202876616C7565202620213129203DD7
:102C20003D20300000000000000000000000000017
:102C3000617373657274696F6E206661696C656437
:102C40003A202876616C7565202620213729203DA1
:102C50003D203000000000000000000000000000E7
:102C6000617474656D707420746F20616464207782
:102C7000697468206F766572666C6F77000000007B
:102C80002F55736572732F6A63736F6F2F2E636195
:102C900072676F2F6769742F636865636B6F7574F4
:102CA000732F636F6D70696C65722D6275696C74DA
:102CB000696E732D65633039346463343561303146
:102CC000373963382F323830643139662F73726385
:102CD0002F696E742F6D756C2E727300602C00005E
:102CE0001C000000802C00005B0000000F000000B2
:102CF000602C00001C000000802C00005B00000025
:102D000010000000602C00001C000000802C00005F
:102D10005B00000014000000602C00001C0000009C
:102D2000802C00005B00000015000000602C0000FB
:102D30001C000000802C00005B0000001700000059
:0C2D400041970181B0B00B84000000003E
:0C2D4C0041970181B0B00B840000000032
:0C2D580041970181B0B00B840000000026
:0C2D640041970181B0B00D840000000018
:0C2D700041970181B0B00D84000000000C
:0C2D7C0041970181B0B00D840000000000
:0C2D880041970181B0B00D8400000000F4
:0C2D940041970181B0B00D8400000000E8
:0C2DA00041970181B0B00D8400000000DC
:0C2DAC0041970181B0B00D8400000000D0
:0C2DB80041970181B0B00D8400000000C4
:0C2DC40041970181B0B00D8400000000B8
:0C2DD00041970181B0B00D8400000000AC
:0C2DDC0041970181B0B00B8400000000A2
:0C2DE80041970181B0B00D840000000094
:0C2DF40041970181B0B00B84000000008A
:0C2E000041970181B0B00D84000000007B
:0C2E0C0041970181B0B00B840000000071
:0C2E180041970181B0B00D840000000063
:0C2E240041970181B0B00D840000000057
:0C2E300041970181B0B00D84000000004B
:0C2E3C0041970181B0B00D84000000003F
:0400000300001001E8
:00000001FF
