:100000000030002001100000A5100000A510000025
:10001000A5100000A5100000A510000000000000C1
:10002000000000000000000000000000A51000001B
:10003000A510000000000000A5100000A5100000A1
:1000400000000000000000000000000000000000B0
:1000500000000000000000000000000000000000A0
:100060000000000000000000000000000000000090
:100070000000000000000000000000000000000080
:100080000000000000000000000000000000000070
:100090000000000000000000000000000000000060
:1000A0000000000000000000000000000000000050
:1000B0000000000000000000000000000000000040
:1000C0000000000000000000000000000000000030
:1000D0000000000000000000000000000000000020
:1000E0000000000000000000000000000000000010
:1000F0000000000000000000000000000000000000
:10040000FFFFFFFFFFFFFFFFFFFFFFFFFEFFFFFFFD
:1010000080B500AF1B49002008601B491B4A012323
:101010008A4200D21846511A002827D1164801F0FA
:101020002AFF1748174900230122814200D21346A4
:101030000A1A002B17D11248134901F013FF134865
:10104000134900230122814200D213460A1A002BC1
:1010500009D10E480F4901F005FF0F4801F00CF9C6
:1010600000F022F8FEE70D4801F05AF90C4801F0B3
:1010700057F9C0460081044000F1FF1F04F1FF1F33
:1010800004F1FF1F04F1FF1F883F000000F0FF1F65
:1010900000F1FF1F00000000E0FF3F00482F0000AC
:1010A000342F0000FEE70000F0B503AF89B000F078
:1010B000A3F91048102100F021F90024009401AD9B
:1010C00008350E4E684607900B480890019602209E
:1010D00002902C606C6007A805900120069001A882
:1010E00000F0F8F80098401C00907D20C00000F04F
:1010F0000DF9E7E7862E0000F9290000A82E000070
:10110000F0B503AF81B00D460168009144686E46AA
:101110003046214601F0C0F8E9B201F0F1F802468C
:101120003046214601F0D2F801B0F0BD7047D0B58D
:1011300002AF82B0002001907F2903D801A801707E
:1011400001223BE0CA0A8020002A0DD18A091F2310
:101150001340024640321A4301AB1A703F220A4044
:1011600002435A70022229E00A0C002A11D10A0B0C
:101170000F231340024660321A4301AB1A708A09EA
:101180003F24224002435A702140014399700322B8
:1011900014E08A0C07231340044670341C4301AA50
:1011A00014700B0B3F242340034353708B092340DF
:1011B0000343937021400143D170042201A900F040
:1011C0006DF8002002B0D0BDB0B502AF88B00068A5
:1011D000019002AA104638C938C038C938C001A8E1
:1011E000024901F0F7F808B0B0BDC0465C2F00001E
:1011F00080B500AF00F052F8002080BDF0B503AF1D
:101200008BB00E4C01262046314600F0FDF807ADAC
:1012100028462146324600F0DBFA2046314600F0EF
:10122000F3F809AE02223046214600F0D1FA01A8B7
:101230002946324600F0A4F80BB0F0BD00900440FF
:10124000F0B503AF8BB00446124D01262846314657
:1012500000F0DAF802A82946324600F0B9FA28462A
:10126000314600F0D1F804A80222294600F0B0FA75
:1012700002AB0FCB0793069209910890682069464C
:101280000860054906AA08AB204600F0A3FA0BB097
:10129000F0BDC0460090044000A00640F0B503AF8A
:1012A00087B014460D4601A8FFF7CAFF04E001A865
:1012B000314600F0D9FA641E002C08D02E786D1C3F
:1012C0000A2EF4D101A80D2100F0CEFAEFE700209C
:1012D00007B0F0BDB0B502AF88B007A9009101AA70
:1012E000114638C838C138C838C16846024901F0CB
:1012F00071F808B0B0BDC0465C2F000080B500AFEB
:101300000A460146FFF7CAFF80BDFEE7F0B503AF0E
:1013100081B005460124204600F0FEF8204600F08A
:10132000BFFA0026304600F0BAFA0090EB17124AD6
:101330002846314601F026FD02460029204600D10C
:101340000846002815D16D462846114600F0BEFA21
:10135000284600F0F9FA2846214600F0C9FA684606
:1013600000F0DEFA0128FAD1684600F0EDFA01B08B
:10137000F0BD024800F0D4FFC05D0000A42F0000C3
:10138000F0B503AF91B004900868039048680590E9
:1013900050CA02960125284600F092F8284600F02F
:1013A000A5F80796069406A802252946FFF7A8FE89
:1013B00005980790039E069606A82946FFF7A0FE0B
:1013C00002980D900C9405980F900E96682069462F
:1013D000086006AD07490CAA0EAB284600F0FAF9E2
:1013E000284600F003FA049B07CD07C307CD07C3C7
:1013F00011B0F0BD00A0064080B500AF00F0A2F82B
:10140000FFF7FCFE80BD0000B0B502AF82B00C4615
:101410002349244A904211DD234A90421DD0234A99
:10142000904223D0224A904237D1019101AD284603
:1014300000F00CFB214600F0FDFB28E01D4A904225
:101440001DD01D4A904228D1019101AD284600F0DF
:10145000FDFA214600F0BEFB19E0019101AD2846DE
:1014600000F0F4FA214600F0C5FB10E0019101AD57
:10147000284600F0EBFA214600F0CCFB07E0019192
:1014800001AD284600F0E2FA214600F093FB014648
:10149000284600F0F1FA02B0B0BD084800F040FF65
:1014A00000700440FFAF044000B0044000C004409E
:1014B00000D004400090044000A00440B82F000079
:1014C000B0B502AF82B004460748019001AD28468E
:1014D00000F090FA214600F05DFB0146284600F03E
:1014E0009FFA02B0B0BDC04600700440B0B502AF74
:1014F00082B004460748019001AD284600F04EFA3C
:10150000E1B200F037FB0146284600F05DFA02B078
:10151000B0BDC04600700440B0B502AF82B0044612
:101520000748019001AD284600F0BCFA214600F0C2
:1015300091FB0146284600F0CBFA02B0B0BDC04690
:101540000070044080B500AF00F002F880BD0000DC
:10155000F0B503AF83B01A4800906D46284600F0FE
:1015600007FA0124214600F009FA0146284600F056
:1015700002FA144E019601AD284600F0BFFA21464A
:1015800000F088FB214600F075FB0146284600F07C
:10159000CBFA029602AD284600F000FA214600F090
:1015A000D9FA0146284600F00FFA00F011F800F0D1
:1015B00063F800F0C3F804480449016003B0F0BDCB
:1015C000005006400070044000F1FF1F006CDC0278
:1015D000F0B503AF85B027480290002402210091A6
:1015E000204600F003FC0321019100F0EFFB0126EF
:1015F000314600F0CBFB014602AD284600F05AFB15
:101600002046009900F012FC314600F0FFFB014635
:10161000284600F053FB2046214600F027FC0199A4
:1016200000F014FC0146284600F05AFB20463146E3
:1016300000F02CFC0146284600F064FB28462146B9
:1016400000F072FB02A800F081FB03A908700846B5
:1016500000F03FFCFF210842F4D102A800F076FB25
:1016600004A90870084600F02FFCC0B20228F4D18B
:1016700005B0F0BD00400640F0B503AF85B02D4881
:1016800001902D48029001AD284600F071F9012427
:10169000214600F073F90146284600F06CF9002558
:1016A00002210091284600F0A1FB032100F08EFBEF
:1016B000294600F07BFB214600F068FB294600F03C
:1016C00057FB014602AE304600F0F4FA2846009976
:1016D00000F0ACFB214600F099FB0146304600F0DB
:1016E000EDFA2846214600F0D1FB0146304600F0D5
:1016F00009FB2846214600F0D7FB0146304600F0A2
:1017000013FB02A800F022FB03A90870084600F0B2
:10171000DBFBC0B20228F4D102A800F017FB04A939
:101720000870084600F0DAFBFF210842F4D005B04B
:10173000F0BDC0460050064000400640F0B503AF83
:1017400083B02148009021480190002401252046C3
:10175000294600F013F90146684600F00CF9032110
:10176000204600F033FB294600F010FB014601AE95
:10177000304600F09FFA0221204600F057FB294630
:1017800000F044FB0146304600F098FA2046294616
:1017900000F07CFB0146304600F0B4FA20462946B2
:1017A00000F082FB0146304600F0BEFA01A800F0CE
:1017B000CDFA02A90870084600F086FBC0B20328E3
:1017C000F4D103B0F0BDC0460050064000400640D2
:1017D00006C07047B0B51C685B681568526822C0C7
:1017E00002604460836004998181B0BDF0B503AFAD
:1017F00081B001680091868A6C4600252046294602
:1018000000F074FC2046294600F082FC310A28468C
:1018100000F0EEFC0146204600F052FC284631461E
:1018200000F0F4FC0146204600F04EFC032128465F
:1018300000F014FD0146204600F0B2FC2046294687
:1018400000F08AFC2046294600F0BEFC012628460E
:10185000314600F0EDFC314600F0DAFC014620464E
:1018600000F056FC01B0F0BDD0B502AF82B00C461E
:1018700000680090684600F05DFC01A90870084609
:1018800000F0E6FCFF210842F4D00020214600F0E1
:10189000E2FC0146684600F071FC02B0D0BD704722
:1018A000B0B502AF82B0084901910124444001ADB6
:1018B000284600F018FB214600F0D0FB01462846E0
:1018C00000F014FB02B0B0BD00700340D0B502AF11
:1018D00082B0064A01920468002000F0CFFB024665
:1018E00001A8214600F006FB02B0D0BD0070034005
:1018F000F0B503AF81B00C460849009105686E460B
:101900003046294600F01AFB214600F0B9FB02469A
:101910003046294600F036FB01B0F0BD00700340B0
:1019200080B500AF82B00168064800F04FFB01901F
:1019300001A800F0B3FB01460120002900D10846B0
:1019400002B080BDCC2F0000D0B502AF82B00749F5
:10195000019104680020012100F0A4FB024601A8C7
:10196000214600F057FB02B0D0BDC04600700340D6
:1019700000680078704700680170704780B500AF5C
:10198000CAB2022A05D27F221040C901014308468B
:1019900080BD014800F0C4FC2830000080B500AFD5
:1019A00003680748181800210122984200D2114606
:1019B000002901D1006880BD024800F0B1FCC0469A
:1019C0000410000088330000D0B502AF0468074857
:1019D000201800220123A04200D21A46002A01D179
:1019E0000160D0BD024800F09BFCC046041000001E
:1019F0009C33000080B500AF036807481818002129
:101A00000122984200D21146002901D1006880BD10
:101A1000024800F085FCC04634100000B0330000DE
:101A2000D0B502AF04680748201800220123A04265
:101A300000D21A46002A01D10160D0BD024800F050
:101A40006FFCC04634100000C433000080B500AF06
:101A500003680748181800210122984200D2114655
:101A6000002901D1006880BD024800F059FCC04641
:101A700038100000D8330000D0B502AF0468074822
:101A8000201800220123A04200D21A46002A01D1C8
:101A90000160D0BD024800F043FCC0463810000091
:101AA000EC33000080B500AF036807481818002128
:101AB0000122984200D21146002901D1006880BD60
:101AC000024800F02DFCC0463C100000003400002D
:101AD000D0B502AF04680748201800220123A042B5
:101AE00000D21A46002A01D10160D0BD024800F0A0
:101AF00017FCC0463C1000001434000080B500AF55
:101B000003680748181800210122984200D21146A4
:101B1000002901D1006880BD024800F001FCC046E8
:101B20004410000028340000D0B502AF0468074814
:101B3000201800220123A04200D21A46002A01D117
:101B40000160D0BD024800F0EBFBC046441000002D
:101B50003C34000080B500AF022906D201221204F5
:101B6000904309040143084680BD014800F0D8FBBA
:101B70003C30000080B500AF042906D20322920653
:101B8000904389060143084680BD014800F0C8FB28
:101B90005030000080B500AF022906D20122920227
:101BA000904389020143084680BD014800F0B8FB1C
:101BB0006430000080B500AF022906D20122520233
:101BC000904349020143084680BD014800F0A8FB4C
:101BD0007830000080B500AF022906D201229202BF
:101BE000904389020143084680BD014800F098FBFC
:101BF0008C30000080B500AF022906D20122D2024B
:101C00009043C9020143084680BD014800F088FBAB
:101C1000A030000080B500AF022906D201221203D5
:101C2000904309030143084680BD014800F078FB5A
:101C3000B430000080B500AF022906D20122520361
:101C4000904349030143084680BD014800F068FB0A
:101C5000C830000080B500AF022906D20122D205AB
:101C60009043C9050143084680BD014800F058FB78
:101C7000DC30000080B500AF082906D2072212042C
:101C8000904309040143084680BD014800F048FB29
:101C9000F030000080B500AF102906D20F221207E5
:101CA000904309070143084680BD014800F038FB16
:101CB000043100000068017070470000D0B502AF29
:101CC0000468601C00220123A04200D21A46002AA8
:101CD00001D10170D0BD014800F022FB8834000022
:101CE000D0B502AF0468E01C00220123A04200D25C
:101CF0001A46002A01D10170D0BD014800F010FB46
:101D00009C340000D0B502AF0468201D00220123DE
:101D1000A04200D21A46002A01D10170D0BD01486C
:101D200000F0FEFAB0340000D0B502AF0468601DC8
:101D300000220123A04200D21A46002A01D10170DC
:101D4000D0BD014800F0ECFAC434000080B500AF0B
:101D50000368981D00210122984200D211460029F3
:101D600001D1007880BD014800F0DAFAD8340000D3
:101D700080B500AFCAB2022A03D2012290430843C1
:101D800080BD014800F0CCFA1831000080B500AFEA
:101D9000CAB2022A05D202229043490001430846F2
:101DA00080BD014800F0BCFA2C31000080B500AFC6
:101DB000CAB2022A05D20422904389000143084690
:101DC00080BD014800F0ACFA4031000080B500AFA2
:101DD000CAB2082A05D238229043C90001430846F6
:101DE00080BD014800F09CFA5431000080B500AF7E
:101DF000CAB2042A05D23F22104089010143084695
:101E000080BD014800F08CFA6831000080B500AF59
:101E1000CAB2022A05D2042290438900014308462F
:101E200080BD014800F07CFA7C31000080B500AF35
:101E3000CAB2042A05D23022904309010143084660
:101E400080BD014800F06CFA9031000080B500AF11
:101E5000CAB2042A05D260229043490101430846D0
:101E600080BD014800F05CFAA431000080B500AFED
:101E7000CAB2022A05D27F221040C9010143084696
:101E800080BD014800F04CFAB831000080B500AFC9
:101E9000CAB2202A03D21F229043084380BD0148C2
:101EA00000F03EFACC31000080B500AFCAB2022A81
:101EB00005D24022904389010143084680BD014874
:101EC00000F02EFAE031000000788108032008407D
:101ED00070470078010901200840704700788109A7
:101EE0000120084070470068006870470068016082
:101EF00070470000B0B502AF042917D201231C02BD
:101F0000056828190024A84200D21C46002C0AD1DA
:101F10000901411800230124814200D22346002BED
:101F200001D10A60B0BD034800F0FAF9024800F0A0
:101F3000F7F9C04628350000F4310000D0B502AFF3
:101F4000042918D22122D2000468A01800220123FB
:101F5000A04200D21A46002A0AD1090141180022E3
:101F60000123814200D21A46002A01D10868D0BD5F
:101F7000024800F0D5F9024800F0D2F93C350000E3
:101F800008320000B0B502AF042918D22123DB00CB
:101F90000568E81800230124A84200D22346002B3C
:101FA0000AD10901411800230124814200D22346AD
:101FB000002B01D10A60B0BD024800F0B1F902481F
:101FC00000F0AEF9503500001C320000D0B502AF71
:101FD000042918D2432292000468A0180022012389
:101FE000A04200D21A46002A0AD109014118002253
:101FF0000123814200D21A46002A01D10868D0BDCF
:10200000024800F08DF9024800F08AF964350000BA
:1020100030320000B0B502AF042918D243239B0030
:102020000568E81800230124A84200D22346002BAB
:102030000AD10901411800230124814200D223461C
:10204000002B01D10A60B0BD024800F069F90248D6
:1020500000F066F9783500004432000080B500AF2A
:10206000022905D20222904349000143084680BD5F
:10207000014800F055F9C046583200000846704744
:1020800080B500AF022903D201229043084380BDEE
:10209000014800F045F9C0466C320000016801209B
:1020A0000840704780B500AF022903D20122904357
:1020B000084380BD014800F033F9C046803200007B
:1020C0000068017070470000D0B502AF0468601C62
:1020D00000220123A04200D21A46002A01D1017039
:1020E000D0BD014800F01CF9CC350000D0B502AFDE
:1020F0000468A01C00220123A04200D21A46002A34
:1021000001D10170D0BD014800F00AF9E0350000AE
:10211000D0B502AF0468E01C00220123A04200D227
:102120001A46002A01D10170D0BD014800F0F8F82C
:10213000F435000080B500AF0368181D00210122AE
:10214000984200D21146002901D1007880BD014893
:1021500000F0E6F808360000D0B502AF0468A01D14
:1021600000220123A04200D21A46002A01D10170A8
:10217000D0BD014800F0D4F81C360000D0B502AF45
:102180000468E01D00220123A04200D21A46002A62
:1021900001D10170D0BD014800F0C2F83036000016
:1021A000D0B502AF046820460A3000220123A042C5
:1021B00000D21A46002A01D10170D0BD014800F0BA
:1021C000AFF8C04644360000D0B502AF04682046E0
:1021D0000B3000220123A04200D21A46002A01D16E
:1021E0000170D0BD014800F09BF8C0465836000091
:1021F00080B500AFCAB2202A03D21F229043084301
:1022000080BD014800F08CF8943200000846704709
:1022100080B500AFCAB2022A05D2042290438900D9
:102220000143084680BD014800F07AF8A83200005A
:1022300080B500AFCAB2022A05D208229043C90075
:102240000143084680BD014800F06AF8BC32000036
:102250000078C009704708467047000080B500AF9D
:10226000CAB2202A03D21F229043084380BD0148EE
:1022700000F056F8D032000080B500AF410E0029C2
:1022800003D1C0010249086080BD024800F048F84F
:1022900008ED00E07C37000080B500AF20290BD2AC
:1022A00089000368581800210122984200D2114683
:1022B000002904D1006880BD034800F031F80148CE
:1022C00000F02EF8C43800001C380000D0B502AF72
:1022D00020290BD289000468601800210123A04244
:1022E00000D21946002904D10260D0BD034800F095
:1022F00017F8014800F014F8D83800003038000012
:1023000080B500AF082906D20722120290430902C5
:102310000143084680BD014800F002F8443800003F
:10232000D0B502AF8CB01EC800680791089207A90B
:10233000019101210291002104910391044A059227
:10234000069109930A940B9001A809A900F022F8BC
:102350004839000080B500AF8CB00346009101926F
:1023600001A808900948099069460A910B9008480D
:1023700002900220039000210591049108A9069182
:10238000079002A8194600F005F8C046D52A0000BB
:10239000043A0000F0B503AF89B0026806924568C0
:1023A00082680792C2680892066944690CC9096884
:1023B0006846066044608260C360016106982946F1
:1023C000079A089BFEF7A1FF80B500AF00F082FBE3
:1023D00080BD0000F0B503AF9BB00C910A9014686B
:1023E0005068099090680D90D068089016695269FD
:1023F00000230E9320250F9530250EA903200B9066
:1024000048551093079312933346099E0A981490E7
:102410000C9815901693D0001D18179518931992C3
:10242000F2000C94A01814460D9A009030310591DA
:102430000720C0430690002A00D1C2E02425089856
:102440004543161D0EA80146103103910830049033
:10245000002D00D1DBE0104624300A90002C00D182
:10246000EAE01598C36809962E4625460C9C21681B
:102470000D926268149898470D9A08340C942C4673
:102480003546099EFF21084200D0D2E008919068AD
:102490000F902020105C05990870D0680E9090690C
:1024A000D1690B9A1040002815D0012816D00228B7
:1024B0000798024627D10022169B179883421046A0
:1024C00021D018460830169059680020624A91427F
:1024D00018D1196813E00122079814E0199A8A426A
:1024E00000D8B2E0C800189A019010184068029015
:1024F0000020594B0299994204D101995158096819
:10250000012200E0024601430498026041600D99F7
:10251000086949690B9A1040002815D0012816D087
:1025200002280798024626D10022169B179883425C
:10253000104620D018460830169059680020464AA8
:10254000914217D1196812E00122079813E0199AF5
:102550008A427DD9C800189A0190101840680290EC
:1025600000203D4B0299994204D1019951580968C4
:10257000012200E0024601430398026041600D9889
:102580000068002807D03168199A914257D2C800D4
:102590001899081806E016981799884252D00146F3
:1025A00008311691011D00680A680EA99047069926
:1025B00064186D181C3D2436089908420A9A38D1CF
:1025C00046E70B95F0000D900B9883421FD01C46F8
:1025D00008340D9800282FD00C9A16460836002B88
:1025E00017D015981D46C36806CA149898472946FF
:1025F000FF2528421DD105C90EA9904706990D9ABD
:1026000052180D9228420C962346DDD011E00C9A08
:1026100000E008321146009882420DD000290BD00C
:102620001598C368084606C814989847FF210842C1
:1026300002D001201BB0F0BD00201BB0F0BD084847
:10264000FFF788FE0748FFF76BFE0448FFF782FE9E
:102650000248FFF77FFEC046C9230000C4390000CE
:10266000B839000034390000F0B503AF91B00C93D5
:102670000A9206460023D8430E908024179A002918
:1026800007D03068012101400B9189180D912B254D
:1026900005E03068511C0D912D2501210B9104217D
:1026A00008420792069102D109930D9A1FE00895FE
:1026B000059600230C99002911D000250C990A9A3F
:1026C0002346403316781E40F6B26B1CA64200D05B
:1026D0002B460E9D4919521C00291D46F0D10C991C
:1026E0000D9A5118CA1A01210991059E089D169B41
:1026F000B168002921D0F16891421ED90895059151
:102700000125E9020491290402910821084203935A
:102710003BD10598801A3021715C0122032900D039
:102720000A4603210D910A400021002A6AD0022A9C
:102730006BD14508401C400865E01C460B980128F9
:102740000DD1B069F2690021109110A90D70D36804
:1027500001252A469847FF21084200D049E10998FF
:1027600000280AD0B069F169CB680A990C9A984799
:102770000125FF21084200D03BE1B069F169CB6837
:102780002146079A9847054633E10D923020706044
:10279000019535543046303000900B980128089B45
:1027A0000DD1B069F2690021109110A90B70D368A6
:1027B00001252A469847FF21084200D019E10998CF
:1027C00000280AD0B069F169CB680A990C9A984739
:1027D000FF210842019D00D00BE10D980599081AD0
:1027E000009909780122032900D00A4603252A40CE
:1027F0000021002A39D0022A3AD142080D92401C09
:10280000400833E00D46069002E00022069205469D
:102810000F917068802803D20FA90870012056E03C
:10282000049988420DD281091F220A402146403175
:1028300011430FAA11703F21014021435170022022
:1028400045E0029988422FD2010B0F220A4021460F
:10285000603111430FAA117081093F2319402143B0
:10286000517018402043907032E00D910C9002E0BE
:1028700000220C920D9010917068802803D210A94C
:10288000087001258DE00499884263D281091F22D6
:102890000A4021464031114310AA11703F210140E6
:1028A0002143517002257CE021467031820C0A439D
:1028B0000FA90A70020B3F231A4022434A70820973
:1028C0001A4022438A7018402043C87004200D909B
:1028D0000E9C641CAC4209D2B069F169CB680FA9A7
:1028E0000D9A9847FF210842F3D081E00B98012808
:1028F0000CD1B069F2690021109110A9089B0B70EE
:10290000D36801229847FF21084271D10998002815
:1029100008D0B069F169CB680A990C9A9847FF21F1
:10292000084265D1B069F169CB680399079A984765
:10293000FF2420425CD1069D0E98401C0E90A842B8
:1029400054D2B069F169CB680FA90D9A984720421B
:10295000F2D04DE00299884210D2010B0F220A40BA
:1029600021466031114310AA117081093F2319409B
:102970002143517018402043907012E0214670317D
:10298000820C0A4310A90A70020B3F231A4022430B
:102990004A7082091A4022438A7018402043C87046
:1029A000069D0E9C641C0D98844209D2B069F169A1
:1029B000CB6810A92A469847FF210842F2D017E0B9
:1029C000B069F169CB680399079A9847FF2405E03D
:1029D000B069F169CB6810A92A469847204207D10F
:1029E0000E98401C0E900C998842F1D3002500E00F
:1029F0000125284611B0F0BDF0B503AF91B00391A9
:102A000002680120C54327242E48824229D3272467
:102A10002D4E049406922B49104600F0ABF9059018
:102A200064220846114600F0A5F907AA12194000D1
:102A3000335C2C46650053555219254630184078B2
:102A40005070480031184978D170305C907005980A
:102A5000049949198C1E1D49069A8A420246D8D803
:102A600000E0104664280CDB642100F083F964194F
:102A70004E0015498A5D07AB1A551A19891949780C
:102A80005170092805DC61194D1C303007A94855E3
:102A900009E0651941000C4A535C07AC63556319A2
:102AA0005118497859702721491B6A46516007A976
:102AB000481910600121064A00230398FFF7D4FD4E
:102AC00011B0F0BD10270000B63A0000FFE0F50598
:102AD00048390000F0B503AF91B0039102680120BE
:102AE000C54327242E48824229D327242D4E0494FF
:102AF00006922B49104600F03DF9059064220846E5
:102B0000114600F037F907AA12194000335C2C4631
:102B100065005355521925463018407850704800CA
:102B200031184978D170305C907005980499491932
:102B30008C1E1D49069A8A420246D8D800E01046EB
:102B400064280CDB642100F015F964194E00154966
:102B50008A5D07AB1A551A198919497851700928E5
:102B600005DC61194D1C303007A9485509E065198D
:102B700041000C4A535C07AC6355631951184978FE
:102B800059702721491B6A46516007A948191060EE
:102B90000121064A00230398FFF766FD11B0F0BD3E
:102BA00010270000B63A0000FFE0F50548390000A4
:102BB000F0B503AF87B014460A460546002A00D197
:102BC000AFE00026002D00D18FE001942020002AE4
:102BD00001461CD05108114314468A080A431109C2
:102BE00011430A0A0A43110C1143C9434A08564BC0
:102BF0001340C91A554A8B0811401340C9180A09D5
:102C00008918534A0A40534951432246090E002D60
:102C10001CD0680828431446820802431009104358
:102C2000020A0243100C1043C0434208464B1340B3
:102C3000C01A464A830810401340C0180209801881
:102C4000434A0240434850432246000E081A1F28B8
:102C5000019C4AD82E4648D00592441C00210122EE
:102C6000844200D21146002962D120200021012295
:102C7000A04200D21146001B00295CD11F2203464E
:102C80001340294699401F2858D81F2C59D8002393
:102C9000002C009524D0029422402846D040059A6A
:102CA000521E04920026344603964200C80F104379
:102CB000049A121AD3171D46059A1540012206924E
:102CC000A842039A00D2069A401B761C002A25D1FE
:102CD0000122134049002143029A96421C46E4D344
:102CE0004E001E43019C009D059A002C13D0D11765
:102CF000F317304600F046F80122002900D10A46B9
:102D0000002A0FD100210122854200D21146281A43
:102D100000290AD12060304607B0F0BD0E48FFF709
:102D2000FFFAFEDE1248FFF7FBFA1048FFF7F8FA49
:102D30000D48FFF7F5FA0B48FFF7F2FA0848FFF7DE
:102D4000EFFA0648FFF7ECFA555555553333333350
:102D50000F0F0F0F01010101C83C0000B43C00003F
:102D6000743C0000383C0000243C0000183D00008A
:102D7000043D000000B581B06A46FFF719FF0099D5
:102D800001B000BDF0B503AF87B003930291030C0F
:102D9000069291B204931A464A4383B259430D0CEA
:102DA000AC1800260122AC4200D21646274A002E5B
:102DB0003CD10592114026040E43002201258E428B
:102DC00000D22A46002A34D10699090C01914B43BE
:102DD000310CCB18002201258B4200D22A46210C4F
:102DE0000091002A28D105990E401C04344300228A
:102DF0000125B44200D22A46002A20D1049A019922
:102E00004A43190C009BCD18A91800220123A9429E
:102E100000D21A46002A15D1029B069A5343039A00
:102E20005043C0184118204607B0F0BD0C48FFF7CA
:102E300077FA0A48FFF774FA0748FFF771FA05486E
:102E4000FFF76EFA0248FFF76BFAC046FFFF00007B
:102E5000DC3D0000C83D0000B43D0000A03D000086
:102E60008C3D000004E00B780370491C401C521E8E
:102E7000002AF8D1704703E000220270401C491E6E
:102E80000029F9D1704752756E6E696E6720436FE5
:102E90006E736F6C650A48656C6C6F2C20576F728F
:102EA0006C6421200A000000962E00000E00000035
:102EB000A42E00000100000000000000000000003F
:102EC0002F55736572732F6A63736F6F2F2E636153
:102ED00072676F2F72656769737472792F7372638B
:102EE0002F6769746875622E636F6D2D316563633A
:102EF0003632393964623965633832332F72302D96
:102F0000302E312E302F7372632F6C69622E7273E4
:102F1000617474656D707420746F2073756274725F
:102F20006163742077697468206F766572666C6F70
:102F300077000000102F000021000000C02E0000CC
:102F40005000000031000000102F000021000000A0
:102F5000C02E0000500000001B0000002D110000DA
:102F60000400000004000000F11100002F11000017
:102F7000C91100007372632F74696D2E72730000A3
:102F8000617474656D707420746F206D756C7469F4
:102F9000706C792077697468206F766572666C6FE3
:102FA00077000000802F000021000000742F000037
:102FB0000A00000010000000D02F000013000000E5
:102FC000F02F0000360000001100000000700340E8
:102FD0006E6F742079657420696D706C656D656EB7
:102FE00074656400000000000000000000000000A4
:102FF0002F55736572732F6A63736F6F2F626F62E1
:1030000062696E2F626F6262696E2D6B696E6574A4
:1030100069732F6B6C32362D68616C2F7372632F5E
:1030200073696D2E72730000A0360000230000004B
:1030300010330000370000004E000000A0360000F2
:103040002300000050330000370000004101000061
:1030500070360000230000005033000037000000ED
:103060005F010000A0360000230000005033000084
:1030700037000000D9020000A03600002300000045
:10308000503300003700000050030000A03600005D
:103090002300000050330000370000005A030000F6
:1030A000A03600002300000050330000370000006D
:1030B00064030000A036000023000000503300002D
:1030C000370000006E030000A0360000230000005F
:1030D000503300003700000078030000A0360000E5
:1030E000230000005033000037000000BB03000045
:1030F000D0360000230000005033000037000000ED
:103100003E0400000037000024000000503300009F
:103110003700000048040000A03600002300000033
:1031200050340000370000009D000000A036000071
:10313000230000005034000037000000A70000000A
:10314000A0360000230000005034000037000000CB
:10315000B1000000D0360000230000005034000011
:1031600037000000BB0000007036000023000000A4
:103170005034000037000000C5000000A0360000F9
:10318000230000005034000037000000FC00000065
:1031900070360000230000005034000037000000AB
:1031A00010010000703600002300000050340000C1
:1031B000370000007C010000A03600002300000062
:1031C0005034000037000000860100003037000056
:1031D000240000005034000037000000A801000067
:1031E000A03600002300000050340000370000002B
:1031F000F1010000603700001B000000F034000007
:103200003700000017000000603700001B000000BE
:10321000F034000037000000250000006037000097
:103220001B000000F03400003700000029000000FF
:10323000603700001B000000F03400003700000081
:1032400032000000603700001B000000F034000076
:103250003700000036000000A03600002300000008
:10326000F03400003700000052000000A0360000DB
:1032700023000000F034000037000000AE00000022
:10328000A036000023000000F034000037000000EA
:10329000E3000000303700002400000090350000FB
:1032A0003900000095000000A03600002300000057
:1032B000903500003900000074010000A0360000C5
:1032C0002300000090350000390000007E0100005E
:1032D0003037000024000000903500003900000065
:1032E0006D0300000000000000000000000000006E
:1032F000617474656D707420746F206164642077EC
:10330000697468206F766572666C6F7700000000E4
:103310002F55736572732F6A63736F6F2F626F62BD
:1033200062696E2F626F6262696E2D6B696E657481
:1033300069732F6B6C32362D636869702F737263FB
:103340002F6F73632E7273000000000000000000F6
:103350002F55736572732F6A63736F6F2F626F627D
:1033600062696E2F626F6262696E2D6B696E657441
:1033700069732F6B6C32362D636869702F737263BB
:103380002F73696D2E727300F03200001C00000074
:1033900050330000370000001E000000F032000033
:1033A0001C00000050330000370000002100000026
:1033B000F03200001C000000503300003700000015
:1033C0004E000000F03200001C00000050330000EE
:1033D0003700000051000000F03200001C00000027
:1033E000503300003700000059000000F0320000A8
:1033F0001C00000050330000370000005C0000009B
:10340000F03200001C0000005033000037000000C4
:1034100064000000F03200001C0000005033000087
:103420003700000067000000F03200001C000000C0
:1034300050330000370000007A000000F032000036
:103440001C00000050330000370000007D00000029
:103450002F55736572732F6A63736F6F2F626F627C
:1034600062696E2F626F6262696E2D6B696E657440
:1034700069732F6B6C32362D636869702F737263BA
:103480002F6D63672E727300F03200001C00000085
:10349000503400003700000016000000F032000039
:1034A0001C00000050340000370000002C00000019
:1034B000F03200001C000000503400003700000013
:1034C00037000000F03200001C0000005034000003
:1034D0003700000042000000F03200001C00000035
:1034E00050340000370000004A00000000000000D7
:1034F0002F55736572732F6A63736F6F2F626F62DC
:1035000062696E2F626F6262696E2D6B696E65749F
:1035100069732F6B6C32362D636869702F73726319
:103520002F7069742E727300F03200001C000000CE
:10353000F03400003700000018000000F0320000F6
:103540001C000000F03400003700000026000000DE
:10355000F03200001C000000F034000037000000D2
:103560002A000000F03200001C000000F0340000CF
:103570003700000033000000F03200001C000000A3
:10358000F0340000370000003700000000000000A9
:103590002F55736572732F6A63736F6F2F626F623B
:1035A00062696E2F626F6262696E2D6B696E6574FF
:1035B00069732F6B6C32362D636869702F73726379
:1035C0002F75617274302E7273000000F0320000AB
:1035D0001C000000903500003900000016000000BB
:1035E000F03200001C00000090350000390000009F
:1035F00021000000F03200001C00000090350000A7
:10360000390000002C000000F03200001C00000017
:10361000903500003900000034000000F032000056
:103620001C00000090350000390000004D00000033
:10363000F03200001C00000090350000390000004E
:1036400058000000F03200001C000000903500001F
:103650003900000079000000F03200001C0000007A
:1036600090350000390000008400000000000000D8
:10367000617373657274696F6E206661696C6564ED
:103680003A202876616C7565202620213329203D5B
:103690003D2030000000000000000000000000009D
:1036A000617373657274696F6E206661696C6564BD
:1036B0003A202876616C7565202620213129203D2D
:1036C0003D2030000000000000000000000000006D
:1036D000617373657274696F6E206661696C65648D
:1036E0003A202876616C7565202620213729203DF7
:1036F0003D2030000000000000000000000000003D
:10370000617373657274696F6E206661696C65645C
:103710003A202876616C75652026202131352920D4
:103720003D3D2030000000000000000000000000CF
:10373000617373657274696F6E206661696C65642C
:103740003A202876616C75652026202133312920A6
:103750003D3D20300000000000000000000000009F
:10376000617373657274696F6E206661696C6564FC
:103770003A20696E646578203C203400F037000000
:103780002A0000009037000059000000D901000015
:103790002F55736572732F6A63736F6F2F2E63617A
:1037A00072676F2F6769742F636865636B6F7574D9
:1037B000732F626F6262696E2D636F727465786DCC
:1037C0002D39646663616361316239623030386516
:1037D000662F356531386331362F7372632F636816
:1037E00069702F7363622E72730000000000000086
:1037F000617373657274696F6E206661696C65646C
:103800003A202876616C75652026202133333535C2
:103810003434333129203D3D20300000F0380000A1
:103820001C0000008038000042000000070000007B
:10383000F03800001C00000080380000420000004A
:103840000B00000010390000230000008038000049
:10385000420000006C0000000000000000000000BA
:10386000617474656D707420746F20616464207776
:10387000697468206F766572666C6F77000000006F
:103880002F55736572732F6A63736F6F2F626F6248
:1038900062696E2F626F6262696E2D6B696E65740C
:1038A00069732F6B696E657469732D636F6D6D6FCE
:1038B0006E2F7372632F636869702F706F72742E2E
:1038C00072730000603800001C00000080380000A7
:1038D0004200000008000000603800001C000000EA
:1038E00080380000420000000C00000000000000D2
:1038F000617373657274696F6E206661696C65646B
:103900003A20696E646578203C2033320000000064
:10391000617373657274696F6E206661696C65644A
:103920003A202876616C7565202620213729203DB4
:103930003D203000203A00002B000000503A0000EB
:1039400066000000490100000000000000000000C7
:103950002F55736572732F6A63736F6F2F2E727595
:10396000737475702F746F6F6C636861696E732FF9
:103970006E696768746C792D7838365F36342D61DE
:1039800070706C652D64617277696E2F6C69622F3F
:10399000727573746C69622F7372632F72757374AE
:1039A0002F7372632F6C6962636F72652F666D741B
:1039B0002F6D6F642E727300503900006700000095
:1039C000DE0300005039000067000000EA03000039
:1039D000696E646578206F7574206F6620626F75FC
:1039E0006E64733A20746865206C656E206973207C
:1039F000206275742074686520696E64657820693A
:103A000073200000D039000020000000F0390000D1
:103A10001200000000000000000000000000000094
:103A200063616C6C656420604F7074696F6E3A3AC4
:103A3000756E77726170282960206F6E206120603A
:103A40004E6F6E65602076616C7565000000000049
:103A50002F55736572732F6A63736F6F2F2E727594
:103A6000737475702F746F6F6C636861696E732FF8
:103A70006E696768746C792D7838365F36342D61DD
:103A800070706C652D64617277696E2F6C69622F3E
:103A9000727573746C69622F7372632F72757374AD
:103AA0002F7372632F6C6962636F72652F6F70740E
:103AB000696F6E2E727330303031303230333034C3
:103AC00030353036303730383039313031313132CD
:103AD00031333134313531363137313831393230B3
:103AE00032313232323332343235323632373238A2
:103AF0003239333033313332333333343335333691
:103B00003337333833393430343134323433343476
:103B1000343534363437343834393530353135325C
:103B20003533353435353536353735383539363042
:103B30003631363236333634363536363637363831
:103B40003639373037313732373337343735373620
:103B50003737373837393830383138323833383406
:103B600038353836383738383839393039313932EC
:103B7000393339343935393639373938393900003C
:103B8000617474656D707420746F20616464207753
:103B9000697468206F766572666C6F77000000004C
:103BA0002F55736572732F6A63736F6F2F2E636166
:103BB00072676F2F6769742F636865636B6F7574C5
:103BC000732F636F6D70696C65722D6275696C74AB
:103BD000696E732D65633039346463343561303117
:103BE000373963382F323830643139662F73726356
:103BF0002F696E742F756469762E72730000000051
:103C0000617474656D707420746F20737562747262
:103C10006163742077697468206F766572666C6F73
:103C200077000000803B00001C000000A03B00006B
:103C30005C00000022000000003C000021000000A9
:103C4000A03B00005C000000250000000000000018
:103C5000617474656D707420746F20736869667424
:103C6000206C6566742077697468206F766572666B
:103C70006C6F7700503C000023000000A03B000068
:103C80005C000000250000000000000000000000B3
:103C9000617474656D707420746F207368696674E4
:103CA0002072696768742077697468206F7665721E
:103CB000666C6F77903C000024000000A03B000081
:103CC0005C00000026000000003C00002100000015
:103CD000A03B00005C000000360000000000000077
:103CE000617474656D707420746F206D756C746987
:103CF000706C792077697468206F766572666C6F76
:103D000077000000E03C000021000000A03B000024
:103D10005C0000005F000000003C0000210000008B
:103D2000A03B00005C0000005F00000000000000FD
:103D30002F55736572732F6A63736F6F2F2E6361D4
:103D400072676F2F6769742F636865636B6F757433
:103D5000732F636F6D70696C65722D6275696C7419
:103D6000696E732D65633039346463343561303185
:103D7000373963382F323830643139662F737263C4
:103D80002F696E742F6D756C2E727300803B00006E
:103D90001C000000303D00005B0000000F00000030
:103DA000803B00001C000000303D00005B00000074
:103DB00010000000803B00001C000000303D0000AF
:103DC0005B00000014000000803B00001C000000AD
:103DD000303D00005B00000015000000803B00004B
:103DE0001C000000303D00005B00000017000000D8
:0C3DF00041970181B0B00D84000000007C
:0C3DFC0041970181B0B00B840000000072
:0C3E080041970181B0B00B840000000065
:0C3E140041970181B0B00B840000000059
:0C3E200041970181B0B00B84000000004D
:0C3E2C0041970181B0B00B840000000041
:0C3E380041970181B0B00B840000000035
:0C3E440041970181B0B00D840000000027
:0C3E500041970181B0B00B84000000001D
:0C3E5C0041970181B0B00D84000000000F
:0C3E680041970181B0B00D840000000003
:0C3E740041970181B0B00D8400000000F7
:0C3E800041970181B0B00D8400000000EB
:0C3E8C0041970181B0B00D8400000000DF
:0C3E980041970181B0B00D8400000000D3
:0C3EA40041970181B0B00D8400000000C7
:0C3EB00041970181B0B00D8400000000BB
:0C3EBC0041970181B0B00D8400000000AF
:0C3EC80041970181B0B00D8400000000A3
:0C3ED40041970181B0B00D840000000097
:0C3EE00041970181B0B00B84000000008D
:0C3EEC0041970181B0B00D84000000007F
:0C3EF80041970181B0B00B840000000075
:0C3F040041970181B0B00D840000000066
:0C3F100041970181B0B00B84000000005C
:0C3F1C0041970181B0B00D84000000004E
:0C3F280041970181B0B00D840000000042
:0C3F340041970181B0B00D840000000036
:0C3F400041970181B0B00D84000000002A
:0C3F4C0041970181B0B00D84000000001E
:0C3F580041970181B0B00D840000000012
:0C3F640041970181B0B00D840000000006
:0C3F700041970181B0B00D8400000000FA
:0C3F7C0041970181B0B00D8400000000EE
:0400000300001001E8
:00000001FF
