:100000000030002001100000A5100000A510000025
:10001000A5100000A5100000A510000000000000C1
:10002000000000000000000000000000A51000001B
:10003000A510000000000000A5100000A5100000A1
:1000400000000000000000000000000000000000B0
:1000500000000000000000000000000000000000A0
:100060000000000000000000000000000000000090
:100070000000000000000000000000000000000080
:100080000000000000000000000000000000000070
:100090000000000000000000000000000000000060
:1000A0000000000000000000000000000000000050
:1000B0000000000000000000000000000000000040
:1000C0000000000000000000000000000000000030
:1000D0000000000000000000000000000000000020
:1000E0000000000000000000000000000000000010
:1000F0000000000000000000000000000000000000
:10040000FFFFFFFFFFFFFFFFFFFFFFFFFEFFFFFFFD
:1010000080B500AF1B49002008601B491B4A012323
:101010008A4200D21846511A002827D1164802F0F9
:1010200060FD1748174900230122814200D2134670
:101030000A1A002B17D11248134902F049FD134830
:10104000134900230122814200D213460A1A002BC1
:1010500009D10E480F4902F03BFD0F4801F0B8F9E5
:1010600000F0BCF8FEE70D4801F0A0FA0C4801F0D2
:101070009DFAC0460081044000F1FF1F04F1FF1FEC
:1010800004F1FF1F04F1FF1FE055000000F0FF1FF7
:1010900000F1FF1F00000000E0FF3F00F83B0000F0
:1010A000E43B0000FEE7704780B500AF8EB00E480D
:1010B00001902B2002900D480168406801AA099216
:1010C0000B4A0A920DAA0B920A4A0C9203910490C1
:1010D00000200690059009A807900220089003A818
:1010E000054901F09DFAC046003B0000644700003E
:1010F000FD100000F13700005847000080B500AF38
:101100000A4603684168184602F092F880BDB0B5FF
:1011100002AF82B00068002201927F2903D801AAA1
:10112000117001223BE0CB0A8022002B0DD18B09EC
:101130001F241C4013464033234301AC23703F233C
:101140000B4013436370022229E00B0C002B11D1DA
:101150000B0B0F241C4013466033234301AC237058
:101160008B093F252B401343637029401143A17025
:10117000032214E08B0C07241C40154670352543D0
:1011800001AB1D700C0B3F252C4014435C708C0987
:101190002C4014439C7029401143D970042201A9AA
:1011A00000F017FC02B0B0BDB0B502AF88B0006867
:1011B000019002AA104638C938C038C938C001A801
:1011C000024901F0CBFB08B0B0BDC0462C3B00008B
:1011D00080B500AF006800F0FCFB80BDF0B503AF48
:1011E00095B000F041F90CAD284600F043F90FAE80
:1011F000304600F053F903AC20462946324600F051
:10120000F7F809AD284600F061F800260B9628464D
:1012100000F03AFB0BA80C901D480D900E941D4851
:101220000F90022002901090129611960CA8139025
:101230000120019014900EA817490FAC224601F02E
:101240008DFB0834FF251EE00B98401C0B907D2081
:10125000C00000F093F809A800F016FB0BA80C9052
:101260000B480D9003A80E900A480F90029810901A
:10127000266066600CA81390019814900EA80FAA1F
:10128000054901F06BFB2842DED0FFF70DFFC04699
:1012900039360000543B00002C3B0000F0B503AF92
:1012A00081B00D460168009144686E463046214683
:1012B00001F00AF9E9B201F03BF902463046214655
:1012C00001F01CF901B0F0BDFEE70000F0B503AF7E
:1012D00087B00190204D01262846314600F0EEF8F7
:1012E00002A81D22294600F0CDFA029C039D059517
:1012F000049404A83146FFF7D1FF184818498C42DE
:101300000ADD18498C420FD017498C420ED0124882
:1013100084421DD117480AE014498C4207D0144971
:101320008C4215D1403002E0803000E0C0300690A1
:1013300006AE304601F070F80122294601F0ACF803
:101340000146304601F07CF8019830C007B0F0BD8E
:10135000094801F02BF9C04600D0044000F00F40CE
:10136000FFAF044000B0044000C0044000900440BF
:1013700000A0044000F10F406C3C0000F0B503AF4A
:1013800081B005460124204600F020F9204600F0F7
:1013900033FB0026304600F02EFB0090EB17124A7C
:1013A0002846314602F024FB02460029204600D19F
:1013B0000846002815D16D462846114600F032FB3C
:1013C000284600F06DFB2846214600F03DFB6846AC
:1013D00000F052FB0128FAD1684600F061FB01B031
:1013E000F0BD024801F0E2F8C05D0000443C00009E
:1013F000F0B503AF91B00490086803904868059079
:1014000050CA02960125284600F0B4F8284600F09C
:10141000C7F80796069406A802252946FFF73EFF5F
:1014200005980790039E069606A82946FFF736FF03
:1014300002980D900C9405980F900E9668206946BE
:10144000086006AD07490CAA0EAB284600F05CFA0E
:10145000284600F065FA049B07CD07C307CD07C3F4
:1014600011B0F0BD00A0064080B500AF00F0C4F898
:1014700080BD0000F0B503AF81B00446064D0126E3
:101480002846314600F01AF820462946324600F038
:10149000F9F901B0F0BDC04600900440B0B502AF0C
:1014A0000446054D0121284600F008F80222204696
:1014B000294600F0E7F9B0BD00900440B0B502AF96
:1014C00082B00C462349244A904211DD234A9042BF
:1014D0001DD0234A904223D0224A904237D1019115
:1014E00001AD284600F05EFB214600F04FFC28E0ED
:1014F0001D4A90421DD01D4A904228D1019101AD54
:10150000284600F04FFB214600F010FC19E0019145
:1015100001AD284600F046FB214600F017FC10E024
:10152000019101AD284600F03DFB214600F01EFC74
:1015300007E0019101AD284600F034FB214600F0A0
:10154000E5FB0146284600F043FB02B0B0BD084869
:1015500001F02CF800700440FFAF044000B00440DC
:1015600000C0044000D004400090044000A00440AB
:10157000583C0000B0B502AF82B004460748019065
:1015800001AD284600F0E2FA214600F0AFFB01462B
:10159000284600F0F1FA02B0B0BDC0460070044029
:1015A000B0B502AF82B004460748019001AD2846AD
:1015B00000F0A0FAE1B200F089FB0146284600F0F5
:1015C000AFFA02B0B0BDC04600700440B0B502AF83
:1015D00082B004460748019001AD284600F00EFB9A
:1015E000214600F0E3FB0146284600F01DFB02B057
:1015F000B0BDC0460070044080B500AF00F002F8F6
:1016000080BD0000F0B503AF83B01A4800906D466E
:10161000284600F059FA0124214600F05BFA014601
:10162000284600F054FA144E019601AD284600F009
:1016300011FB214600F0DAFB214600F0C7FB014612
:10164000284600F01DFB029602AD284600F052FA33
:10165000214600F02BFB0146284600F061FA00F01D
:1016600011F800F063F800F0C3F804480449016081
:1016700003B0F0BD005006400070044000F1FF1FB1
:10168000006CDC02F0B503AF85B02748029000245F
:1016900002210091204600F055FC0321019100F049
:1016A00041FC0126314600F01DFC014602AD2846F2
:1016B00000F0ACFB2046009900F064FC314600F0DD
:1016C00051FC0146284600F0A5FB2046214600F0CB
:1016D00079FC019900F066FC0146284600F0ACFB5D
:1016E0002046314600F07EFC0146284600F0B6FB5D
:1016F0002846214600F0C4FB02A800F0D3FB03A952
:101700000870084600F091FCFF210842F4D102A8BD
:1017100000F0C8FB04A90870084600F081FCC0B2C4
:101720000228F4D105B0F0BD00400640F0B503AF8B
:1017300085B02D4801902D48029001AD284600F05B
:10174000C3F90124214600F0C5F90146284600F0FE
:10175000BEF9002502210091284600F0F3FB032189
:1017600000F0E0FB294600F0CDFB214600F0BAFB7B
:10177000294600F0A9FB014602AE304600F046FBC8
:101780002846009900F0FEFB214600F0EBFB0146E5
:10179000304600F03FFB2846214600F023FC01467E
:1017A000304600F05BFB2846214600F029FC01464C
:1017B000304600F065FB02A800F074FB03A9087036
:1017C000084600F02DFCC0B20228F4D102A800F0B7
:1017D00069FB04A90870084600F02CFCFF210842B0
:1017E000F4D005B0F0BDC0460050064000400640B1
:1017F000F0B503AF83B02148009021480190002448
:1018000001252046294600F065F90146684600F0AA
:101810005EF90321204600F085FB294600F062FBBB
:10182000014601AE304600F0F1FA0221204600F0F8
:10183000A9FB294600F096FB0146304600F0EAFA83
:101840002046294600F0CEFB0146304600F006FB5C
:101850002046294600F0D4FB0146304600F010FB3C
:1018600001A800F01FFB02A90870084600F0D8FB91
:10187000C0B20328F4D103B0F0BDC046005006400A
:101880000040064006C0704780B500AF82B00268D5
:101890001449154B9A420ADD144B9A420FD0144B4F
:1018A0009A420ED013498A4218D115490AE0124BC8
:1018B0009A4207D0114B9A4210D1403102E0803158
:1018C00000E0C031019141680020012200F0CCFD10
:1018D000014601A800F08CFD02B080BD094800F06F
:1018E00065FEC04600F00F40FFAF044000B004406A
:1018F00000C0044000D004400090044000A0044018
:1019000000F10F406C3C0000B0B51C685B681568C6
:10191000526822C002604460836004998181B0BD36
:10192000F0B503AF81B001680091868A6C4600254E
:101930002046294600F086FC2046294600F094FC0B
:10194000310A284600F000FD0146204600F064FC04
:101950002846314600F006FD0146204600F060FCB6
:101960000321284600F026FD0146204600F0C4FC75
:101970002046294600F09CFC2046294600F0D0FC79
:1019800001262846314600F0FFFC314600F0ECFC11
:101990000146204600F068FC01B0F0BDD0B502AFB2
:1019A00082B00C4600680090684600F06FFC01A908
:1019B0000870084600F0F8FCFF210842F4D000202F
:1019C000214600F0F4FC0146684600F083FC02B0BA
:1019D000D0BDF0B503AF81B014460D46064605E014
:1019E00029783046FFF7DAFF641E6D1C002CF7D112
:1019F000002001B0F0BD7047B0B502AF82B0084919
:101A000001910124444001AD284600F018FB214615
:101A100000F0D0FB0146284600F014FB02B0B0BD38
:101A200000700340D0B502AF82B0064A019204684C
:101A3000002000F0CFFB024601A8214600F006FB83
:101A400002B0D0BD00700340F0B503AF81B00C46CA
:101A50000849009105686E463046294600F01AFB99
:101A6000214600F0B9FB02463046294600F036FB1D
:101A700001B0F0BD0070034080B500AF82B00168D6
:101A8000064800F04FFB019001A800F0B3FB0146AF
:101A90000120002900D1084602B080BD803C000032
:101AA000D0B502AF82B0074901910468002001213E
:101AB00000F0A4FB024601A8214600F057FB02B04B
:101AC000D0BDC046007003400068007870470068D1
:101AD0000170704780B500AFCAB2022A05D27F22DA
:101AE0001040C9010143084680BD014800F05EFD79
:101AF000283D000080B500AF036807481818002192
:101B00000122984200D21146002901D1006880BD0F
:101B1000024800F04BFDC046041000008840000061
:101B2000D0B502AF04680748201800220123A04264
:101B300000D21A46002A01D10160D0BD024800F04F
:101B400035FDC046041000009C40000080B500AF89
:101B500003680748181800210122984200D2114654
:101B6000002901D1006880BD024800F01FFDC04679
:101B700034100000B0400000D0B502AF0468074840
:101B8000201800220123A04200D21A46002A01D1C7
:101B90000160D0BD024800F009FDC04634100000CD
:101BA000C440000080B500AF036807481818002142
:101BB0000122984200D21146002901D1006880BD5F
:101BC000024800F0F3FCC04638100000D840000086
:101BD000D0B502AF04680748201800220123A042B4
:101BE00000D21A46002A01D10160D0BD024800F09F
:101BF000DDFCC04638100000EC40000080B500AFAE
:101C000003680748181800210122984200D21146A3
:101C1000002901D1006880BD024800F0C7FCC04621
:101C20003C10000000410000D0B502AF0468074836
:101C3000201800220123A04200D21A46002A01D116
:101C40000160D0BD024800F0B1FCC0463C1000006D
:101C50001441000080B500AF036807481818002140
:101C60000122984200D21146002901D1006880BDAE
:101C7000024800F09BFCC0464410000028410000D0
:101C8000D0B502AF04680748201800220123A04203
:101C900000D21A46002A01D10160D0BD024800F0EE
:101CA00085FCC046441000003C41000080B500AFF8
:101CB000022906D201221204904309040143084676
:101CC00080BD014800F072FC3C3D000080B500AFD3
:101CD000042906D20322920690438906014308464E
:101CE00080BD014800F062FC503D000080B500AFAF
:101CF000022906D20122920290438902014308463A
:101D000080BD014800F052FC643D000080B500AF8A
:101D1000022906D201225202904349020143084699
:101D200080BD014800F042FC783D000080B500AF66
:101D3000022906D2012292029043890201430846F9
:101D400080BD014800F032FC8C3D000080B500AF42
:101D5000022906D20122D2029043C9020143084659
:101D600080BD014800F022FCA03D000080B500AF1E
:101D7000022906D2012212039043090301430846B7
:101D800080BD014800F012FCB43D000080B500AFFA
:101D9000022906D201225203904349030143084617
:101DA00080BD014800F002FCC83D000080B500AFD6
:101DB000022906D20122D2059043C90501430846F3
:101DC00080BD014800F0F2FBDC3D000080B500AFB3
:101DD000082906D207221204904309040143084649
:101DE00080BD014800F0E2FBF03D000080B500AF8F
:101DF000102906D20F221207904309070143084613
:101E000080BD014800F0D2FB043E00000068017074
:101E100070470000D0B502AF0468601C00220123A7
:101E2000A04200D21A46002A01D10170D0BD01485B
:101E300000F0BCFB88410000D0B502AF0468E01C94
:101E400000220123A04200D21A46002A01D10170CB
:101E5000D0BD014800F0AAFB9C410000D0B502AF04
:101E60000468201D00220123A04200D21A46002A45
:101E700001D10170D0BD014800F098FBB0410000D5
:101E8000D0B502AF0468601D00220123A04200D239
:101E90001A46002A01D10170D0BD014800F086FB2E
:101EA000C441000080B500AF0368981D00210122E5
:101EB000984200D21146002901D1007880BD014826
:101EC00000F074FBD841000080B500AFCAB2022A0E
:101ED00003D201229043084380BD014800F066FB15
:101EE000183E000080B500AFCAB2022A05D2022215
:101EF000904349000143084680BD014800F056FB6D
:101F00002C3E000080B500AFCAB2022A05D20422DE
:101F1000904389000143084680BD014800F046FB1C
:101F2000403E000080B500AFCAB2082A05D2382270
:101F30009043C9000143084680BD014800F036FBCC
:101F4000543E000080B500AFCAB2042A05D23F2239
:101F5000104089010143084680BD014800F026FB7E
:101F6000683E000080B500AFCAB2022A05D2042242
:101F7000904389000143084680BD014800F016FBEC
:101F80007C3E000080B500AFCAB2042A05D23022E0
:101F9000904309010143084680BD014800F006FB5B
:101FA000903E000080B500AFCAB2042A05D260227C
:101FB000904349010143084680BD014800F0F6FA0C
:101FC000A43E000080B500AFCAB2022A05D27F222B
:101FD0001040C9010143084680BD014800F0E6FAFF
:101FE000B83E000080B500AFCAB2202A03D21F223B
:101FF0009043084380BD014800F0D8FACC3E000071
:1020000080B500AFCAB2022A05D2402290438901AE
:102010000143084680BD014800F0C8FAE03E0000D8
:1020200000788108032008407047007801090120EA
:102030000840704700788109012008407047006817
:10204000006870470068016070470000B0B502AFDB
:10205000042917D201231C02056828190024A8426C
:1020600000D21C46002C0AD109014118002301248A
:10207000814200D22346002B01D10A60B0BD034843
:1020800000F094FA024800F091FAC046284200009D
:10209000F43E0000D0B502AF042918D22122D200AC
:1020A0000468A01800220123A04200D21A46002A88
:1020B0000AD10901411800220123814200D21A46A7
:1020C000002A01D10868D0BD024800F06FFA02482A
:1020D00000F06CFA3C420000083F0000B0B502AFCF
:1020E000042918D22123DB000568E8180023012405
:1020F000A84200D22346002B0AD10901411800232F
:102100000124814200D22346002B01D10A60B0BDD8
:10211000024800F04BFA024800F048FA5042000032
:102120001C3F0000D0B502AF042918D24322920010
:102130000468A01800220123A04200D21A46002AF7
:102140000AD10901411800220123814200D21A4616
:10215000002A01D10868D0BD024800F027FA0248E1
:1021600000F024FA64420000303F0000B0B502AF36
:10217000042918D243239B000568E8180023012492
:10218000A84200D22346002B0AD10901411800239E
:102190000124814200D22346002B01D10A60B0BD48
:1021A000024800F003FA024800F000FA784200000A
:1021B000443F000080B500AF022905D202229043BF
:1021C00049000143084680BD014800F0EFF9C046D0
:1021D000583F00000846704780B500AF022903D27F
:1021E00001229043084380BD014800F0DFF9C0465A
:1021F0006C3F0000016801200840704780B500AFC7
:10220000022903D201229043084380BD014800F017
:10221000CDF9C046803F00000068017070470000A3
:10222000D0B502AF0468601C00220123A04200D296
:102230001A46002A01D10170D0BD014800F0B6F95C
:10224000CC420000D0B502AF0468A01C00220123DC
:10225000A04200D21A46002A01D10170D0BD014827
:1022600000F0A4F9E0420000D0B502AF0468E01C21
:1022700000220123A04200D21A46002A01D1017097
:10228000D0BD014800F092F9F442000080B500AFE3
:102290000368181D00210122984200D2114600292E
:1022A00001D1007880BD014800F080F908430000AA
:1022B000D0B502AF0468A01D00220123A04200D2C5
:1022C0001A46002A01D10170D0BD014800F06EF914
:1022D0001C430000D0B502AF0468E01D00220123BA
:1022E000A04200D21A46002A01D10170D0BD014897
:1022F00000F05CF930430000D0B502AF046820461E
:102300000A3000220123A04200D21A46002A01D13D
:102310000170D0BD014800F049F9C04644430000B7
:10232000D0B502AF046820460B3000220123A04242
:1023300000D21A46002A01D10170D0BD014800F038
:1023400035F9C0465843000080B500AFCAB2202A14
:1023500003D21F229043084380BD014800F026F9B4
:10236000943F00000846704780B500AFCAB2022A09
:1023700005D20422904389000143084680BD0148EC
:1023800000F014F9A83F000080B500AFCAB2022ADD
:1023900005D208229043C9000143084680BD014888
:1023A00000F004F9BC3F00000078C00970470846FF
:1023B0007047000080B500AFCAB2202A03D21F22A6
:1023C0009043084380BD014800F0F0F8D03F000082
:1023D00080B500AF410E002903D1C0010249086059
:1023E00080BD024800F0E2F808ED00E07C44000007
:1023F000D0B502AF046820460C3000220123A04271
:1024000000D21A46002A01D10160D0BD014800F077
:10241000CDF8C0461C46000080B500AF03681846E2
:10242000143000210122984200D21146002901D126
:10243000006880BD014800F0B9F8C0463046000091
:10244000D0B502AF04682046143000220123A04218
:1024500000D21A46002A01D10160D0BD014800F027
:10246000A5F8C0464446000080B500AF202909D237
:10247000022A0AD21F2319408A4001238B40984325
:10248000104380BD034800F091F8014800F08EF839
:10249000304500001C45000080B500AF202909D25E
:1024A000022A0AD21F2319408A4001238B409843F5
:1024B000104380BD034800F079F8014800F076F839
:1024C000584500004445000080B500AF20290BD2DC
:1024D00089000368581800210122984200D2114651
:1024E000002904D1006880BD034800F05FF801486E
:1024F00000F05CF8A44600006C450000D0B502AFC7
:1025000020290BD289000468601800210123A04211
:1025100000D21946002904D10260D0BD034800F062
:1025200045F8014800F042F8B84600008045000038
:1025300080B500AF082906D2072212029043090293
:102540000143084680BD014800F030F89445000082
:1025500080B500AF8AB000900A4A0192001D029037
:1025600003928869C969084A0492022205920023ED
:10257000079306936B460893099204AA00F0EEF9BC
:102580000AB080BD2D360000084E00000146012033
:10259000802909D3CA0A0220002A05D00A0C032088
:1025A0000421002A00D0084670470000D0B502AFD1
:1025B0008CB01EC800680791089207A901910121FB
:1025C0000291002104910391044A05920691099316
:1025D0000A940B9001A809A900F022F8A84700006E
:1025E00080B500AF8CB003460091019201A808901D
:1025F0000948099069460A910B9008480290022008
:10260000039000210591049108A90691079002A862
:10261000194600F005F8C04615370000544E00007A
:10262000F0B503AF89B002680692456882680792E8
:10263000C2680892066944690CC909686846066060
:1026400044608260C360016106982946079A089B2E
:10265000FEF73AFE80B500AF002801D0084680BDE5
:102660000148FFF7A3FFC0464447000080B500AF14
:102670008CB000900191684608900948099001A922
:102680000A910B90074802900220039000210591C7
:10269000049108A90691079002A80349FFF7C0FF1B
:1026A00015370000B44F00006C47000080B500AF44
:1026B0008CB000900191684608900948099001A9E2
:1026C0000A910B9007480290022003900021059187
:1026D000049108A90691079002A80349FFF7A0FFFB
:1026E00015370000F44F000078470000F0B503AF45
:1026F0009FB00592019306934023DC43002300938F
:10270000DD43FF2633460233049301230393049BE6
:102710009942039B049115D3731C04938B4208D2F6
:102720008319039301230296039EF356029EA3424C
:1027300007DC7319002E02D0B1421E46ECD15B1C9F
:102740000493009B0790049E08960393002B01D1ED
:10275000744B00E0724B0993002305260496039EF8
:10276000002E00D1049B0A938A42019E00D99EE06C
:102770008E4200D99BE0B24200D9B5E0002A05D0D4
:102780008A4203D003D28356A34200DD32460B9225
:10279000002A0ED08A420CD04B1C8A4202D28656A6
:1027A000A64206DC5619012A04D093423246F4D1DF
:1027B00000E016468A1B8319981804900025002A09
:1027C00028464CD0187840B2C1B20394403464B269
:1027D000A04201DD012042E01F240C400020012A1C
:1027E000049A03D05A783F2010409A1C0192029418
:1027F000A201C3B21A4303982030C4B20120A142FF
:102800002CD900220092049C019AA24207D012788F
:1028100000923F24009A14400094019A541C0194A1
:102820009C01009AD3B22343029A12031A43039CD9
:102830003034E4B2A14211D90021049A019C94429F
:1028400002D022783F21114007229204029CA40466
:1028500014409A012243C9B2114300E01146FFF728
:10286000F9FE0C90FFF792FE0D9680190E900BA8C2
:1028700015902D4816900CA817902C4818900DA86C
:1028800019902B481A9007A81B902A481C9009A958
:102890001D911E9028480F900520109012951195BB
:1028A00015A9139114900FA82449FFF7B9FE8A4285
:1028B00000D8019A0D920DA815901B48169007A8F4
:1028C00017901C48189009A919911A901E480F904A
:1028D0000320109000211291119115A913911490C9
:1028E0000FA81A49FFF79CFE05A815900E481690F0
:1028F00006A91791189007A819900E481A9009A9CF
:102900001B911C900E480F900420109000211291F2
:10291000119115A9139114900FA80A49FFF780FE91
:10292000A847000087480000153700004532000026
:102930005125000009380000C45000009C470000E9
:1029400064500000904700002850000084470000B9
:1029500080B500AF00F0DEFE80BD0000F0B503AF33
:102960009BB00C910A9014685068099090680D9083
:10297000D06808901669526900230E9320250F95A0
:1029800030250EA903200B904855109307931293FE
:102990003346099E0A9814900C9815901693D0000F
:1029A0001D18179518931992F2000C94A01814464C
:1029B0000D9A0090303105910720C0430690002AFF
:1029C00000D1C2E0242508984543161D0EA80146F3
:1029D0001031039108300490002D00D1DBE0104647
:1029E00024300A90002C00D1EAE01598C3680996BB
:1029F0002E4625460C9C21680D92626814989847D3
:102A00000D9A08340C942C463546099EFF21084245
:102A100000D0D2E0089190680F902020105C0599BA
:102A20000870D0680E909069D1690B9A1040002808
:102A300015D0012816D002280798024627D1002277
:102A4000169B17988342104621D0184608301690DE
:102A500059680020624A914218D1196813E0012296
:102A6000079814E0199A8A4200D8B2E0C800189A70
:102A700001901018406802900020594B0299994229
:102A800004D1019951580968012200E0024601432E
:102A90000498026041600D99086949690B9A1040D9
:102AA000002815D0012816D002280798024626D102
:102AB0000022169B17988342104620D018460830F3
:102AC000169059680020464A914217D1196812E0C1
:102AD0000122079813E0199A8A427DD9C800189AF2
:102AE000019010184068029000203D4B02999942D5
:102AF00004D1019951580968012200E002460143BE
:102B00000398026041600D980068002807D0316882
:102B1000199A914257D2C8001899081806E01698D9
:102B20001799884252D0014608311691011D00685C
:102B30000A680EA99047069964186D181C3D243642
:102B4000089908420A9A38D146E70B95F0000D9093
:102B50000B9883421FD01C4608340D9800282FD0B4
:102B60000C9A16460836002B17D015981D46C368D8
:102B700006CA149898472946FF2528421DD105C941
:102B80000EA9904706990D9A52180D9228420C965C
:102B90002346DDD011E00C9A00E00832114600987F
:102BA00082420DD000290BD01598C368084606C88C
:102BB00014989847FF21084202D001201BB0F0BDB5
:102BC00000201BB0F0BD0848FFF70AFD0748FFF7DB
:102BD000EDFC0448FFF704FD0248FFF701FDC04685
:102BE0005129000004490000F84800004447000053
:102BF000F0B503AF91B00C930A9206460023D84378
:102C00000E908024179A002907D0306801210140D6
:102C10000B9189180D912B2505E03068511C0D9101
:102C20002D2501210B91042108420792069102D122
:102C300009930D9A1FE00895059600230C99002929
:102C400011D000250C990A9A2346403316781E406D
:102C5000F6B26B1CA64200D02B460E9D4919521CA1
:102C600000291D46F0D10C990D9A5118CA1A01215C
:102C70000991059E089D169BB168002921D0F16835
:102C800091421ED9089505910125E9020491290474
:102C900002910821084203933BD10598801A302104
:102CA000715C0122032900D00A4603210D910A40DC
:102CB0000021002A6AD0022A6BD14508401C400836
:102CC00065E01C460B9801280DD1B069F26900211E
:102CD000109110A90D70D36801252A469847FF214D
:102CE000084200D049E1099800280AD0B069F1698A
:102CF000CB680A990C9A98470125FF21084200D019
:102D00003BE1B069F169CB682146079A98470546CF
:102D100033E10D92302070600195355430463030EB
:102D200000900B980128089B0DD1B069F269002131
:102D3000109110A90B70D36801252A469847FF21EE
:102D4000084200D019E1099800280AD0B069F16959
:102D5000CB680A990C9A9847FF210842019D00D040
:102D60000BE10D980599081A0099097801220329A9
:102D700000D00A4603252A400021002A39D0022A21
:102D80003AD142080D92401C400833E00D460690AF
:102D900002E00022069205460F917068802803D257
:102DA0000FA90870012056E0049988420DD28109CC
:102DB0001F220A402146403111430FAA11703F21C2
:102DC000014021435170022045E0029988422FD2F0
:102DD000010B0F220A402146603111430FAA1170E6
:102DE00081093F23194021435170184020439070BE
:102DF00032E00D910C9002E000220C920D901091A7
:102E00007068802803D210A9087001258DE004990C
:102E1000884263D281091F220A4021464031114372
:102E200010AA11703F2101402143517002257CE01E
:102E300021467031820C0A430FA90A70020B3F230E
:102E40001A4022434A7082091A4022438A7018406D
:102E50002043C87004200D900E9C641CAC4209D223
:102E6000B069F169CB680FA90D9A9847FF21084214
:102E7000F3D081E00B9801280CD1B069F2690021F0
:102E8000109110A9089B0B70D36801229847FF216D
:102E9000084271D10998002808D0B069F169CB685F
:102EA0000A990C9A9847FF21084265D1B069F169E7
:102EB000CB680399079A9847FF2420425CD1069D6E
:102EC0000E98401C0E90A84254D2B069F169CB68AC
:102ED0000FA90D9A98472042F2D04DE002998842FE
:102EE00010D2010B0F220A4021466031114310AA73
:102EF000117081093F23194021435170184020432C
:102F0000907012E021467031820C0A4310A90A70B9
:102F1000020B3F231A4022434A7082091A4022437F
:102F20008A7018402043C870069D0E9C641C0D9842
:102F3000844209D2B069F169CB6810A92A46984742
:102F4000FF210842F2D017E0B069F169CB6803991C
:102F5000079A9847FF2405E0B069F169CB6810A98A
:102F60002A469847204207D10E98401C0E900C9993
:102F70008842F1D3002500E00125284611B0F0BDBC
:102F8000F0B503AF8DB006463469B36818462043E8
:102F9000002857D000200490C0430B908020099057
:102FA000012C53D188180A90746900200790002CD6
:102FB0004DD0002A4BD001A84CC00B98021B00201A
:102FC0000E4605910C460146751C33785BB2099894
:102FD0007F3040B2834225DCB61C0A9885420896B1
:102FE00000D10895DBB20A98854200D03546099891
:102FF0005F30C0B2834215D9089E701C06900A98B3
:10300000864200D0069D0A98864200D1069609980D
:103010006F30C0B2834205D9069E731C0A9886425F
:1030200000D01D462E46521C002A6DD00B1B99194C
:103030000A9886423446C7D101980790039E0599A5
:10304000029B04E0B069F369DB685AE00792002B49
:103050004ED00591F0680A9007980028099A0499C3
:1030600011D00025079B059C104640302178014077
:10307000C8B2691C904200D029460B981B18641CEA
:10308000002B0D46F0D1079A501A0A99884234D283
:1030900003960021002A0E46099A11D00025079BAD
:1030A000059C1046403026780640F0B26E1C9042D7
:1030B00000D02E460B981B18641C002B3546F0D10F
:1030C0000798301A0A9A82183020039D2C5C032C32
:1030D0000B4600D02346032006460340002B2CD08D
:1030E000022B2DD150080A90501C400808902AE06D
:1030F000B069F269D368079A03E0B069F169CB68F7
:10310000059998470DB0F0BD0029029B079100D1A9
:1031100088E0019CA142039E059998D006D20798A9
:103120000856099A3F3252B2904290DC002308467A
:1031300021461A46079BFFF7D9FA0A91089202E046
:10314000002008900A920C916968802903D20CA88B
:10315000017001263AE0C80A00280ED188091F2212
:103160000240099B1846403010430CAA10703F20C3
:10317000084018435070022628E0080C002811D19E
:10318000080B0F220240099C2046603010430CAA15
:10319000107088093F231840204350701940214384
:1031A000917013E0099C204670308B0C03430CAAED
:1031B0001370080B3F2318402043507088091840B3
:1031C0002043907019402143D17004260B9C641C4D
:1031D0000A98844209D2A869E969CB680CA93246E9
:1031E0009847FF210842F2D008E0A869E969CB6856
:1031F0000599079A9847FF24204202D001200DB07C
:10320000F0BD0B98401C0B90089988420DD2A8691C
:10321000E969CB680CA9324698472042F1D00120D9
:103220000DB0F0BD039E059911E700200DB0F0BD73
:1032300080B500AF0B46014610461A46FFF7A0FEC8
:1032400080BD0000F0B503AF89B00C460646A0690A
:10325000E1690A69272190470121FF25284200D012
:103260004EE1049132681046093874210691022615
:1032700007921E28059545D81346800001A14058A5
:103280000892874605340000013300001333000024
:1032900013330000333300001333000013330000F6
:1032A0001333000013330000133300001333000006
:1032B00013330000133300001333000013330000F6
:1032C00013330000133300001333000013330000E6
:1032D00013330000133300001333000013330000D6
:1032E00013330000133300000B33000013330000CE
:1032F0001333000013330000133300000B330000BE
:103300006E2017E013465C2A03D1089007980690B8
:1033100078E028463030190C00290ED11D460146B0
:103320001E316A469160854903C285492A22854B30
:1033300011E072200690089064E0590C002911D128
:103340001D462730694688607948486092200860A9
:1033500078491F22784B079800F0FEF801260028D4
:1033600025D126E068481818069068495818039037
:103370001846674A0240674BC1180891664D4319C9
:10338000664E0546801901266549884211D3654875
:1033900083420ED36448089981420AD3634882422B
:1033A00007D00398292804D306980B2801D3089046
:1033B00025E0012005432020002D1AD0680828436D
:1033C0008108014308090843010A0143080C084326
:1033D000C04341085C4A0A40801A5C4982080840A0
:1033E0000A4080180109401859490140594848438A
:1033F000000E1F21081A810805200890032607984F
:103400000690059D079169E0072308980340E8436B
:103410000022D243042B23D89B0002A55B59059DB3
:103420009F46C046F1340000393400007534000076
:10343000A5340000B934000007991140079108999C
:10344000014008917D2104E01646069901E05C21C7
:103450000126A069E2691269904728423ED04EE0F9
:1034600007991140079108990140042001430891F0
:103470005C21EEE7079989001C230B400699D9408F
:103480000F250D4030232B43294657310A2D00D3F9
:103490000B467F211940079B002B16D05B1E07931C
:1034A000059DD6E707991140079108990140022030
:1034B000014308917B21CCE7079B13400793089AAF
:1034C00002400A4308927521C3E713400793089A04
:1034D0000240012002430892059DBAE703213046CD
:1034E000084000220128AFD00228B0D000288BD19C
:1034F000A069E1690A6927219047014600E0049923
:10350000084609B0F0BDC046CB48FDFF2959FDFF74
:10351000FEFF1F005E31FDFFE205FDFF10FEF1FF23
:1035200010FE0200E2060B005E2900001EB8020039
:10353000B04C0000E04B00001E4C0000934A00001D
:103540001049000064490000555555553333333355
:103550000F0F0F0F01010101F0B503AF85B001930B
:103560005300CB180293FF231B0203401B0A039353
:10357000002A27D00A9A009200254A7856190B781B
:10358000891C0491039C9C4213D1AE4243D3009BFF
:103590009E4244D8019B5B19002A0ED0521E314630
:1035A0005E1CC4B21B780025A34233460E46F3D1FD
:1035B0002AE0049906D3029A01E0029A0499914202
:1035C0003546DAD10C990B9B5A1804920122002936
:1035D00019D080B21546591C1C7866B2002E01DB4A
:1035E0000B4608E0049CA14212D07F210E4031021C
:1035F0005C780C439B1C001B002805DB554004999C
:103600008B42E8D100E015460120284005B0F0BD0E
:103610000548FEF7CBFF28463146FFF747F830460E
:103620000099FFF723F8C0464447000080B500AF7B
:1036300000F070F880BD0000F0B503AF91B00391C9
:1036400002680120C54327242E48824229D327241B
:103650002D4E049406922B49104600F0C1F90590B6
:1036600064220846114600F0BBF907AA121940006F
:10367000335C2C4665005355521925463018407866
:103680005070480031184978D170305C90700598BE
:10369000049949198C1E1D49069A8A420246D8D8B7
:1036A00000E0104664280CDB642100F099F96419ED
:1036B0004E0015498A5D07AB1A551A1989194978C0
:1036C0005170092805DC61194D1C303007A9485597
:1036D00009E0651941000C4A535C07AC6355631956
:1036E0005118497859702721491B6A46516007A92A
:1036F000481910600121064A00230398FFF778FA61
:1037000011B0F0BD10270000EC500000FFE0F505FF
:10371000A8470000F0B503AF91B003910268012003
:10372000C54327242E48824229D327242D4E0494B2
:1037300006922B49104600F053F905906422084682
:10374000114600F04DF907AA12194000335C2C46CF
:10375000650053555219254630184078507048007E
:1037600031184978D170305C9070059804994919E6
:103770008C1E1D49069A8A420246D8D800E010469F
:1037800064280CDB642100F02BF964194E00154904
:103790008A5D07AB1A551A19891949785170092899
:1037A00005DC61194D1C303007A9485509E0651941
:1037B00041000C4A535C07AC6355631951184978B2
:1037C00059702721491B6A46516007A948191060A2
:1037D0000121064A00230398FFF70AFA11B0F0BD51
:1037E00010270000EC500000FFE0F505A84700009E
:1037F00080B500AF8869C969CB680249052298473E
:1038000080BDC046B451000080B500AF0368426877
:1038100008461946FFF7B4FB80BD0000F0B503AFC2
:1038200087B014460A460546002A00D1AFE00026BC
:10383000002D00D18FE001942020002A01461CD0E9
:103840005108114314468A080A43110911430A0A10
:103850000A43110C1143C9434A08564B1340C91A75
:10386000554A8B0811401340C9180A098918534A50
:103870000A40534951432246090E002D1CD06808C6
:10388000284314468208024310091043020A0243E7
:10389000100C1043C0434208464B1340C01A464A1E
:1038A000830810401340C01802098018434A0240A0
:1038B000434850432246000E081A1F28019C4AD84C
:1038C0002E4648D00592441C00210122844200D299
:1038D0001146002962D1202000210122A04200D2FD
:1038E0001146001B00295CD11F22034613402946C4
:1038F00099401F2858D81F2C59D80023002C009518
:1039000024D0029422402846D040059A521E0492A8
:103910000026344603964200C80F1043049A121A38
:10392000D3171D46059A154001220692A842039A14
:1039300000D2069A401B761C002A25D10122134092
:1039400049002143029A96421C46E4D34E001E438E
:10395000019C009D059A002C13D0D117F317304617
:1039600000F046F80122002900D10A46002A0FD1B2
:1039700000210122854200D21146281A00290AD1CD
:103980002060304607B0F0BD0E48FEF70FFEFEDEA9
:103990001248FEF70BFE1048FEF708FE0D48FEF732
:1039A00005FE0B48FEF702FE0848FEF7FFFD06483D
:1039B000FEF7FCFD55555555333333330F0F0F0FBD
:1039C0000101010108530000F4520000B45200004C
:1039D0007852000064520000585300004453000025
:1039E00000B581B06A46FFF719FF009901B000BD2C
:1039F000F0B503AF87B003930291030C069291B226
:103A000004931A464A4383B259430D0CAC1800265E
:103A10000122AC4200D21646274A002E3CD1059224
:103A2000114026040E43002201258E4200D22A4670
:103A3000002A34D10699090C01914B43310CCB1863
:103A4000002201258B4200D22A46210C0091002A37
:103A500028D105990E401C04344300220125B442AC
:103A600000D22A46002A20D1049A01994A43190C0F
:103A7000009BCD18A91800220123A94200D21A46A2
:103A8000002A15D1029B069A5343039A5043C0184B
:103A90004118204607B0F0BD0C48FEF787FD0A48E4
:103AA000FEF784FD0748FEF781FD0548FEF77EFD21
:103AB0000248FEF77BFDC046FFFF00001C540000DB
:103AC00008540000F4530000E0530000CC53000001
:103AD00004E00B780370491C401C521E002AF8D1E8
:103AE000704703E000220270401C491E0029F9D1F2
:103AF000704700000000000000000000000000000F
:103B000063616C6C65642060526573756C743A3ADD
:103B1000756E77726170282960206F6E20616E204B
:103B200060457272602076616C756500A7100000B8
:103B30000400000004000000D11100000F1100007B
:103B4000A911000048656C6C6F2C20576F726C6473
:103B5000200D0A00443B00000D000000513B000016
:103B60000200000000000000000000000000000053
:103B70002F55736572732F6A63736F6F2F2E636196
:103B800072676F2F72656769737472792F737263CE
:103B90002F6769746875622E636F6D2D316563637D
:103BA0003632393964623965633832332F72302DD9
:103BB000302E312E302F7372632F6C69622E727328
:103BC000617474656D707420746F207375627472A3
:103BD0006163742077697468206F766572666C6FB4
:103BE00077000000C03B000021000000703B000097
:103BF0005000000031000000C03B00002100000028
:103C0000703B0000500000001B0000007372632F27
:103C100074696D2E72730000000000000000000047
:103C2000617474656D707420746F206D756C746947
:103C3000706C792077697468206F766572666C6F36
:103C400077000000203C0000210000000C3C000038
:103C50000A00000010000000903C0000130000006B
:103C6000B03C00003600000011000000903C000055
:103C700013000000F03C0000370000002B000000A3
:103C80000070034000000000000000000000000081
:103C90006E6F742079657420696D706C656D656EEA
:103CA00074656400000000000000000000000000D7
:103CB0002F55736572732F6A63736F6F2F626F6214
:103CC00062696E2F626F6262696E2D6B696E6574D8
:103CD00069732F6B6C32362D68616C2F7372632F92
:103CE00073696D2E72730000000000000000000078
:103CF0002F55736572732F6A63736F6F2F626F62D4
:103D000062696E2F626F6262696E2D6B696E657497
:103D100069732F6B6C32362D68616C2F7372632F51
:103D2000706F72742E727300A043000023000000B5
:103D300010400000370000004E000000A0430000CB
:103D40002300000050400000370000004101000047
:103D500070430000230000005040000037000000C6
:103D60005F010000A043000023000000504000005D
:103D700037000000D9020000A0430000230000002B
:103D8000504000003700000050030000A043000036
:103D90002300000050400000370000005A030000DC
:103DA000A043000023000000504000003700000046
:103DB00064030000A0430000230000005040000006
:103DC000370000006E030000A04300002300000045
:103DD000504000003700000078030000A0430000BE
:103DE000230000005040000037000000BB0300002B
:103DF000D0430000230000005040000037000000C6
:103E00003E04000000440000240000005040000078
:103E10003700000048040000A04300002300000019
:103E200050410000370000009D000000A04300004A
:103E3000230000005041000037000000A7000000F0
:103E4000A0430000230000005041000037000000A4
:103E5000B1000000D04300002300000050410000EA
:103E600037000000BB00000070430000230000008A
:103E70005041000037000000C5000000A0430000D2
:103E8000230000005041000037000000FC0000004B
:103E90007043000023000000504100003700000084
:103EA000100100007043000023000000504100009A
:103EB000370000007C010000A04300002300000048
:103EC000504100003700000086010000304400002F
:103ED000240000005041000037000000A80100004D
:103EE000A043000023000000504100003700000004
:103EF000F1010000604400001B000000F0410000E0
:103F00003700000017000000604400001B000000A4
:103F1000F041000037000000250000006044000070
:103F20001B000000F04100003700000029000000E5
:103F3000604400001B000000F0410000370000005A
:103F400032000000604400001B000000F04100004F
:103F50003700000036000000A043000023000000EE
:103F6000F04100003700000052000000A0430000B4
:103F700023000000F041000037000000AE00000008
:103F8000A043000023000000F041000037000000C3
:103F9000E3000000304400002400000090420000D4
:103FA0003900000095000000A0430000230000003D
:103FB000904200003900000074010000A04300009E
:103FC0002300000090420000390000007E01000044
:103FD000304400002400000090420000390000003E
:103FE0006D03000000000000000000000000000061
:103FF000617474656D707420746F206164642077DF
:10400000697468206F766572666C6F7700000000D7
:104010002F55736572732F6A63736F6F2F626F62B0
:1040200062696E2F626F6262696E2D6B696E657474
:1040300069732F6B6C32362D636869702F737263EE
:104040002F6F73632E7273000000000000000000E9
:104050002F55736572732F6A63736F6F2F626F6270
:1040600062696E2F626F6262696E2D6B696E657434
:1040700069732F6B6C32362D636869702F737263AE
:104080002F73696D2E727300F03F00001C0000005A
:1040900050400000370000001E000000F03F00000C
:1040A0001C0000005040000037000000210000000C
:1040B000F03F00001C0000005040000037000000EE
:1040C0004E000000F03F00001C00000050400000C7
:1040D0003700000051000000F03F00001C0000000D
:1040E000504000003700000059000000F03F000081
:1040F0001C00000050400000370000005C00000081
:10410000F03F00001C00000050400000370000009D
:1041100064000000F03F00001C0000005040000060
:104120003700000067000000F03F00001C000000A6
:1041300050400000370000007A000000F03F00000F
:104140001C00000050400000370000007D0000000F
:104150002F55736572732F6A63736F6F2F626F626F
:1041600062696E2F626F6262696E2D6B696E657433
:1041700069732F6B6C32362D636869702F737263AD
:104180002F6D63672E727300F03F00001C0000006B
:10419000504100003700000016000000F03F000012
:1041A0001C00000050410000370000002C000000FF
:1041B000F03F00001C0000005041000037000000EC
:1041C00037000000F03F00001C00000050410000DC
:1041D0003700000042000000F03F00001C0000001B
:1041E00050410000370000004A00000000000000BD
:1041F0002F55736572732F6A63736F6F2F626F62CF
:1042000062696E2F626F6262696E2D6B696E657492
:1042100069732F6B6C32362D636869702F7372630C
:104220002F7069742E727300F03F00001C000000B4
:10423000F04100003700000018000000F03F0000CF
:104240001C000000F04100003700000026000000C4
:10425000F03F00001C000000F041000037000000AB
:104260002A000000F03F00001C000000F0410000A8
:104270003700000033000000F03F00001C00000089
:10428000F04100003700000037000000000000008F
:104290002F55736572732F6A63736F6F2F626F622E
:1042A00062696E2F626F6262696E2D6B696E6574F2
:1042B00069732F6B6C32362D636869702F7372636C
:1042C0002F75617274302E7273000000F03F000091
:1042D0001C000000904200003900000016000000A1
:1042E000F03F00001C000000904200003900000078
:1042F00021000000F03F00001C0000009042000080
:10430000390000002C000000F03F00001C000000FD
:10431000904200003900000034000000F03F00002F
:104320001C00000090420000390000004D00000019
:10433000F03F00001C000000904200003900000027
:1043400058000000F03F00001C00000090420000F8
:104350003900000079000000F03F00001C00000060
:1043600090420000390000008400000000000000BE
:10437000617373657274696F6E206661696C6564E0
:104380003A202876616C7565202620213329203D4E
:104390003D20300000000000000000000000000090
:1043A000617373657274696F6E206661696C6564B0
:1043B0003A202876616C7565202620213129203D20
:1043C0003D20300000000000000000000000000060
:1043D000617373657274696F6E206661696C656480
:1043E0003A202876616C7565202620213729203DEA
:1043F0003D20300000000000000000000000000030
:10440000617373657274696F6E206661696C65644F
:104410003A202876616C75652026202131352920C7
:104420003D3D2030000000000000000000000000C2
:10443000617373657274696F6E206661696C65641F
:104440003A202876616C7565202620213331292099
:104450003D3D203000000000000000000000000092
:10446000617373657274696F6E206661696C6564EF
:104470003A20696E646578203C203400F0440000E6
:104480002A0000009044000059000000D9010000FB
:104490002F55736572732F6A63736F6F2F2E63616D
:1044A00072676F2F6769742F636865636B6F7574CC
:1044B000732F626F6262696E2D636F727465786DBF
:1044C0002D39646663616361316239623030386509
:1044D000662F356531386331362F7372632F636809
:1044E00069702F7363622E72730000000000000079
:1044F000617373657274696F6E206661696C65645F
:104500003A202876616C75652026202133333535B5
:104510003434333129203D3D20300000D0460000A6
:104520001C000000B045000042000000FE0000003A
:10453000F046000023000000B045000042000000EB
:10454000FF000000D04600001C000000B045000045
:104550004200000082010000F0460000230000003D
:10456000B04500004200000083010000D04600007A
:104570001C00000060460000420000000700000030
:10458000D04600001C000000604600004200000011
:104590000B000000204700002300000060460000E0
:1045A000420000006C00000000000000000000005D
:1045B0002F55736572732F6A63736F6F2F626F620B
:1045C00062696E2F626F6262696E2D6B696E6574CF
:1045D00069732F6B696E657469732D636F6D6D6F91
:1045E0006E2F7372632F636869702F6770696F2E07
:1045F00072730000000000000000000000000000D6
:10460000617474656D707420746F206164642077C8
:10461000697468206F766572666C6F77004600007B
:104620001C000000B0450000420000001A0000001D
:10463000004600001C000000B045000042000000E1
:1046400022000000004600001C000000B0450000F1
:1046500042000000250000000000000000000000F3
:104660002F55736572732F6A63736F6F2F626F625A
:1046700062696E2F626F6262696E2D6B696E65741E
:1046800069732F6B696E657469732D636F6D6D6FE0
:104690006E2F7372632F636869702F706F72742E40
:1046A00072730000004600001C000000604600001D
:1046B0004200000008000000004600001C0000004E
:1046C00060460000420000000C00000000000000F6
:1046D000617373657274696F6E206661696C65647D
:1046E0003A20696E646578203C2033320000000077
:1046F000617373657274696F6E206661696C65645D
:104700003A202876616C7565202620213129203DCC
:104710003D2030000000000000000000000000000C
:10472000617373657274696F6E206661696C65642C
:104730003A202876616C7565202620213729203D96
:104740003D203000704E00002B000000A04E000005
:104750006600000049010000104F000066000000E4
:104760005B030000784F000002000000B04700002B
:1047700069000000A0020000B047000069000000CE
:10478000A602000020480000670000007208000038
:104790002048000067000000760800002048000064
:1047A0006700000083080000000000000000000017
:1047B0002F55736572732F6A63736F6F2F2E727527
:1047C000737475702F746F6F6C636861696E732F8B
:1047D0006E696768746C792D7838365F36342D6170
:1047E00070706C652D64617277696E2F6C69622FD1
:1047F000727573746C69622F7372632F7275737440
:104800002F7372632F6C6962636F72652F736C69AB
:1048100063652F6D6F642E7273000000000000004E
:104820002F55736572732F6A63736F6F2F2E7275B6
:10483000737475702F746F6F6C636861696E732F1A
:104840006E696768746C792D7838365F36342D61FF
:1048500070706C652D64617277696E2F6C69622F60
:10486000727573746C69622F7372632F72757374CF
:104870002F7372632F6C6962636F72652F7374722A
:104880002F6D6F642E72735B2E2E2E5D0000000064
:104890002F55736572732F6A63736F6F2F2E727546
:1048A000737475702F746F6F6C636861696E732FAA
:1048B0006E696768746C792D7838365F36342D618F
:1048C00070706C652D64617277696E2F6C69622FF0
:1048D000727573746C69622F7372632F727573745F
:1048E0002F7372632F6C6962636F72652F666D74CC
:1048F0002F6D6F642E7273009048000067000000F7
:10490000DE0300009048000067000000EA0300009A
:1049100000010305050806030704080709100A1B20
:104920000B180C160D140E160F0410031212130997
:1049300016011705180219031A071C011F16200378
:1049400023012B052C022D0B2E01300331013202E5
:10495000A701A802A902AA04AB08FA02FB05FD04FC
:10496000FE03FF09AD78798B8DA230575860888B94
:104970008C901C1DDD0E0F4B4C2E2F3F5C5DB5E265
:10498000848D8E9192A9B1BABBC5C6C9CADEE4E5D1
:10499000041112293134373A3B3D494A5D848E92E5
:1049A000A9B1B4BABBC6CACECFE4E5040D0E11124C
:1049B0002931343A3B4546494A5E646584919B9D62
:1049C000C9CECF040D11294549576465848D91A93D
:1049D000B4BABBC5C9DFE4E5F0040D113B3C454961
:1049E0006465808184B2BCBEBFD5D7F0F183858673
:1049F000898B8C98A0A4A6A8A9ACBABEBFC5C7CE07
:104A0000CFDADB4898BDCDC6CECF494E4F57595E61
:104A10005F898E8FB1B6B7BFC1C6C7D71116175BF6
:104A20005CF6F7FEFF800D6D71DEDF0E0F1F6E6FFF
:104A30001C1D5F7D7EAEAFF716171E1F46474E4FFB
:104A4000585A5C5E7E7FB5C5D4D5DCF0F1F5727343
:104A50008FFF74759697C92F5F262E2FA7AFB7BF0C
:104A6000C7CFD7DF9A4097988F1FFFAFFEFFCEFFCB
:104A70004E4F5A5B07080F10272FEEEF6E6F373D32
:104A80003F42459091FEFF536775C8C9D0D1D8D930
:104A9000E7FEFF00205F2282DF048244081B050539
:104AA0001181AC0E3B055F411E1680DF0319080122
:104AB0000420050A043404070301070607100B50FD
:104AC0000F120701074D0802041C0A090308030717
:104AD00003020303030C0405030B06010E15053A3C
:104AE0000311070605100856070207150E4F044369
:104AF000032D03010411060F0C3A041D250D064C6D
:104B0000206D046A2580C80582B0031A0682FD0361
:104B10005907150B1709140C140C6A060A061A0615
:104B200058082B05460A2C040C040103310B2C04F5
:104B30001A060B0380AC060A061F414C042D0374B1
:104B4000083C030F033C3708082A0680F605820458
:104B50001118082F112D031F11210F808C0482972B
:104B6000190B15875A03151A041080F4052F053BFD
:104B700007020E180980A53B740C80D61A0C05801C
:104B8000FF052903808A05240C9BC60AD2162A84B5
:104B90008D033709815C1480B80880B83F35040A5A
:104BA00006380846080C06740B1E035A045909807F
:104BB00083181C0A1609460A808A06ABA40C17043F
:104BC00031A10481DA26070C050580A511816D103D
:104BD00078282A064C04808D0480BE031B030F0D29
:104BE0000006010103010402080809020A030B027E
:104BF0001001110412051312140215021C052401E0
:104C00006A036B02BC02D102D40CD509D602D702CA
:104C1000DA01E005E802EE20F004F101F9040C27C6
:104C20003B3E4E4F8F9E9E9F060709363D3E56F3F4
:104C3000D0D10414185657BD35CECFE01287898ED7
:104C40009E040D0E11122931343A3B4546494A4E15
:104C50004F64655A5CB6B709379091A86F5FEEEF65
:104C60005A629A9B2728559DA0A1A3A4A7A8ADBAD4
:104C7000BCC4060B0C151D3A3F4551A6A7CCCDA0D0
:104C800007191A2225C5C604202325262833383AB9
:104C9000484A4C50535556585A5C5E606365666B83
:104CA00073787D7F8AA4AAAFB0C0D02F1F31323F66
:104CB0005E227B0503042D036504012F2E80821DD7
:104CC00003310F1C04240C1B052B0544040E2A8001
:104CD000AA06240424042808340B01809081370993
:104CE000160A088098390363080930160521031B4A
:104CF00005014038044B052804030409080907404E
:104D00002027040C0936033A051A07040C075049FA
:104D100037330D33070681601F81814E041E0F4318
:104D20000E19070A06440C2709750B3F412A063B5A
:104D3000050A0651060105100305808B5E2248080E
:104D40000A80A65E22450B0A060D1338080A361A99
:104D5000030F04108160530C0181C0398107460A9A
:104D60001D03478349839A66750B80C48ABC842FD0
:104D70008FD18247A1B98239072A040260260A46E8
:104D80000A2805138370450B2F101140011F97ED62
:104D90001382F3A50D028BFE6B050D03090710931B
:104DA0006080F60A73086E174680BA570912808E23
:104DB00081470385420F1585502B87D580D7294B16
:104DC000050A040284A03C06010455051B34028137
:104DD0000E2C04640C560A0D035C043D391D0D2C89
:104DE0000409070280AE83D30D0D030709740C5527
:104DF0002B0C0438080A0628081E6218081C040F29
:104E000021122E01863F2E2EA84700000000000030
:104E1000064E00000200000000000000000000003C
:104E2000696E646578206F7574206F6620626F7597
:104E30006E64733A20746865206C656E2069732017
:104E4000206275742074686520696E6465782069D5
:104E500073200000204E000020000000404E0000A3
:104E60001200000000000000000000000000000030
:104E700063616C6C656420604F7074696F6E3A3A60
:104E8000756E77726170282960206F6E20612060D6
:104E90004E6F6E65602076616C75650000000000E5
:104EA0002F55736572732F6A63736F6F2F2E727530
:104EB000737475702F746F6F6C636861696E732F94
:104EC0006E696768746C792D7838365F36342D6179
:104ED00070706C652D64617277696E2F6C69622FDA
:104EE000727573746C69622F7372632F7275737449
:104EF0002F7372632F6C6962636F72652F6F7074AA
:104F0000696F6E2E72730000000000000000000048
:104F10002F55736572732F6A63736F6F2F2E7275BF
:104F2000737475702F746F6F6C636861696E732F23
:104F30006E696768746C792D7838365F36342D6108
:104F400070706C652D64617277696E2F6C69622F69
:104F5000727573746C69622F7372632F72757374D8
:104F60002F7372632F6C6962636F72652F72657342
:104F7000756C742E72733A20A84700000000000080
:104F8000764F000002000000696E64657820000022
:104F9000206F7574206F662072616E676520666F82
:104FA0007220736C696365206F66206C656E677430
:104FB00068200000884F000006000000904F0000AD
:104FC00022000000000000000000000000000000BF
:104FD000736C69636520696E6465782073746172AF
:104FE0007473206174202062757420656E64732070
:104FF00061742000D04F000016000000E64F000052
:105000000D0000006279746520696E646578200087
:10501000206973206F7574206F6620626F756E64EF
:1050200073206F6620606000045000000B000000D9
:105030001050000016000000265000000100000083
:10504000626567696E203C3D20656E642028203CC7
:105050003D2029207768656E20736C6963696E67EF
:1050600020600000405000000E0000004E50000084
:105070000400000052500000100000002650000004
:10508000010000000000000000000000000000001F
:10509000206973206E6F74206120636861722062E2
:1050A0006F756E646172793B206974206973206941
:1050B0006E736964652020286279746573202920E5
:1050C0006F662060045000000B000000905000004C
:1050D00026000000B650000008000000BE5000008E
:1050E0000600000026500000010000003030303182
:1050F0003032303330343035303630373038303984
:10510000313031313132313331343135313631377B
:105110003138313932303231323232333234323561
:105120003236323732383239333033313332333347
:10513000333433353336333733383339343034312D
:105140003432343334343435343634373438343913
:10515000353035313532353335343535353635370B
:1051600035383539363036313632363336343635F1
:1051700036363637363836393730373137323733D7
:1051800037343735373637373738373938303831BD
:1051900038323833383438353836383738383839A3
:1051A000393039313932393339343935393639379B
:1051B000393839394572726F720000000000000002
:1051C000617474656D707420746F206164642077FD
:1051D000697468206F766572666C6F7700000000F6
:1051E0002F55736572732F6A63736F6F2F2E636110
:1051F00072676F2F6769742F636865636B6F75746F
:10520000732F636F6D70696C65722D6275696C7454
:10521000696E732D656330393464633435613031C0
:10522000373963382F323830643139662F737263FF
:105230002F696E742F756469762E727300000000FA
:10524000617474656D707420746F2073756274720C
:105250006163742077697468206F766572666C6F1D
:1052600077000000C05100001C000000E051000069
:105270005C000000220000004052000021000000FD
:10528000E05100005C00000025000000000000006C
:10529000617474656D707420746F207368696674CE
:1052A000206C6566742077697468206F7665726615
:1052B0006C6F77009052000023000000E051000066
:1052C0005C0000002500000000000000000000005D
:1052D000617474656D707420746F2073686966748E
:1052E0002072696768742077697468206F766572C8
:1052F000666C6F77D052000024000000E05100007F
:105300005C00000026000000405200002100000068
:10531000E05100005C0000003600000000000000CA
:10532000617474656D707420746F206D756C746930
:10533000706C792077697468206F766572666C6F1F
:10534000770000002053000021000000E051000021
:105350005C0000005F0000004052000021000000DF
:10536000E05100005C0000005F0000000000000051
:105370002F55736572732F6A63736F6F2F2E63617E
:1053800072676F2F6769742F636865636B6F7574DD
:10539000732F636F6D70696C65722D6275696C74C3
:1053A000696E732D6563303934646334356130312F
:1053B000373963382F323830643139662F7372636E
:1053C0002F696E742F6D756C2E727300C0510000C2
:1053D0001C000000705300005B0000000F00000084
:1053E000C05100001C000000705300005B00000072
:1053F00010000000C05100001C00000070530000AD
:105400005B00000014000000C05100001C00000000
:10541000705300005B00000015000000C051000048
:105420001C000000705300005B000000170000002B
:0C54300041970181B0B00B840000000027
:0C543C0041970181B0B00B84000000001B
:0C54480041970181B0B00B84000000000F
:0C54540041970181B0B00B840000000003
:0C54600041970181B0B00B8400000000F7
:0C546C0041970181B0B00B8400000000EB
:0C54780041970181B0B00B8400000000DF
:0C54840041970181B0B00D8400000000D1
:0C54900041970181B0B00B8400000000C7
:0C549C0041970181B0B00D8400000000B9
:0C54A80041970181B0B00D8400000000AD
:0C54B40041970181B0B00D8400000000A1
:0C54C00041970181B0B00D840000000095
:0C54CC0041970181B0B00D840000000089
:0C54D80041970181B0B00D84000000007D
:0C54E40041970181B0B00D840000000071
:0C54F00041970181B0B00D840000000065
:0C54FC0041970181B0B00D840000000059
:0C55080041970181B0B00D84000000004C
:0C55140041970181B0B00D840000000040
:0C55200041970181B0B00B840000000036
:0C552C0041970181B0B00D840000000028
:0C55380041970181B0B00B84000000001E
:0C55440041970181B0B00D840000000010
:0C55500041970181B0B00B840000000006
:0C555C0041970181B0B00D8400000000F8
:0C55680041970181B0B00D8400000000EC
:0C55740041970181B0B00D8400000000E0
:0C55800041970181B0B00D8400000000D4
:0C558C0041970181B0B00D8400000000C8
:0C55980041970181B0B00D8400000000BC
:0C55A40041970181B0B00D8400000000B0
:0C55B00041970181B0B00D8400000000A4
:0C55BC0041970181B0B00D840000000098
:0C55C80041970181B0B00D84000000008C
:0C55D40041970181B0B00D840000000080
:0400000300001001E8
:00000001FF
